{
  "address": "0x2a2Ba7186e81ba94279175183A69E15347F2a4BA",
  "abi": [
    {
      "inputs": [
        {
          "internalType": "address",
          "name": "_lzEndpoint",
          "type": "address"
        },
        {
          "internalType": "address",
          "name": "_delegate",
          "type": "address"
        },
        {
          "internalType": "uint256",
          "name": "_chainId",
          "type": "uint256"
        }
      ],
      "stateMutability": "nonpayable",
      "type": "constructor"
    },
    {
      "inputs": [
        {
          "internalType": "address",
          "name": "sender",
          "type": "address"
        },
        {
          "internalType": "uint256",
          "name": "tokenId",
          "type": "uint256"
        },
        {
          "internalType": "address",
          "name": "owner",
          "type": "address"
        }
      ],
      "name": "ERC721IncorrectOwner",
      "type": "error"
    },
    {
      "inputs": [
        {
          "internalType": "address",
          "name": "operator",
          "type": "address"
        },
        {
          "internalType": "uint256",
          "name": "tokenId",
          "type": "uint256"
        }
      ],
      "name": "ERC721InsufficientApproval",
      "type": "error"
    },
    {
      "inputs": [
        {
          "internalType": "address",
          "name": "approver",
          "type": "address"
        }
      ],
      "name": "ERC721InvalidApprover",
      "type": "error"
    },
    {
      "inputs": [
        {
          "internalType": "address",
          "name": "operator",
          "type": "address"
        }
      ],
      "name": "ERC721InvalidOperator",
      "type": "error"
    },
    {
      "inputs": [
        {
          "internalType": "address",
          "name": "owner",
          "type": "address"
        }
      ],
      "name": "ERC721InvalidOwner",
      "type": "error"
    },
    {
      "inputs": [
        {
          "internalType": "address",
          "name": "receiver",
          "type": "address"
        }
      ],
      "name": "ERC721InvalidReceiver",
      "type": "error"
    },
    {
      "inputs": [
        {
          "internalType": "address",
          "name": "sender",
          "type": "address"
        }
      ],
      "name": "ERC721InvalidSender",
      "type": "error"
    },
    {
      "inputs": [
        {
          "internalType": "uint256",
          "name": "tokenId",
          "type": "uint256"
        }
      ],
      "name": "ERC721NonexistentToken",
      "type": "error"
    },
    {
      "inputs": [],
      "name": "InvalidDelegate",
      "type": "error"
    },
    {
      "inputs": [],
      "name": "InvalidEndpointCall",
      "type": "error"
    },
    {
      "inputs": [
        {
          "internalType": "bytes",
          "name": "options",
          "type": "bytes"
        }
      ],
      "name": "InvalidOptions",
      "type": "error"
    },
    {
      "inputs": [],
      "name": "InvalidReceiver",
      "type": "error"
    },
    {
      "inputs": [],
      "name": "LzTokenUnavailable",
      "type": "error"
    },
    {
      "inputs": [
        {
          "internalType": "uint32",
          "name": "eid",
          "type": "uint32"
        }
      ],
      "name": "NoPeer",
      "type": "error"
    },
    {
      "inputs": [
        {
          "internalType": "uint256",
          "name": "msgValue",
          "type": "uint256"
        }
      ],
      "name": "NotEnoughNative",
      "type": "error"
    },
    {
      "inputs": [
        {
          "internalType": "address",
          "name": "addr",
          "type": "address"
        }
      ],
      "name": "OnlyEndpoint",
      "type": "error"
    },
    {
      "inputs": [
        {
          "internalType": "address",
          "name": "caller",
          "type": "address"
        },
        {
          "internalType": "address",
          "name": "owner",
          "type": "address"
        }
      ],
      "name": "OnlyNFTOwner",
      "type": "error"
    },
    {
      "inputs": [
        {
          "internalType": "uint32",
          "name": "eid",
          "type": "uint32"
        },
        {
          "internalType": "bytes32",
          "name": "sender",
          "type": "bytes32"
        }
      ],
      "name": "OnlyPeer",
      "type": "error"
    },
    {
      "inputs": [],
      "name": "OnlySelf",
      "type": "error"
    },
    {
      "inputs": [
        {
          "internalType": "address",
          "name": "owner",
          "type": "address"
        }
      ],
      "name": "OwnableInvalidOwner",
      "type": "error"
    },
    {
      "inputs": [
        {
          "internalType": "address",
          "name": "account",
          "type": "address"
        }
      ],
      "name": "OwnableUnauthorizedAccount",
      "type": "error"
    },
    {
      "inputs": [
        {
          "internalType": "address",
          "name": "token",
          "type": "address"
        }
      ],
      "name": "SafeERC20FailedOperation",
      "type": "error"
    },
    {
      "inputs": [
        {
          "internalType": "bytes",
          "name": "result",
          "type": "bytes"
        }
      ],
      "name": "SimulationResult",
      "type": "error"
    },
    {
      "anonymous": false,
      "inputs": [
        {
          "indexed": true,
          "internalType": "address",
          "name": "owner",
          "type": "address"
        },
        {
          "indexed": true,
          "internalType": "address",
          "name": "approved",
          "type": "address"
        },
        {
          "indexed": true,
          "internalType": "uint256",
          "name": "tokenId",
          "type": "uint256"
        }
      ],
      "name": "Approval",
      "type": "event"
    },
    {
      "anonymous": false,
      "inputs": [
        {
          "indexed": true,
          "internalType": "address",
          "name": "owner",
          "type": "address"
        },
        {
          "indexed": true,
          "internalType": "address",
          "name": "operator",
          "type": "address"
        },
        {
          "indexed": false,
          "internalType": "bool",
          "name": "approved",
          "type": "bool"
        }
      ],
      "name": "ApprovalForAll",
      "type": "event"
    },
    {
      "anonymous": false,
      "inputs": [
        {
          "indexed": false,
          "internalType": "string",
          "name": "baseURI",
          "type": "string"
        }
      ],
      "name": "BaseURISet",
      "type": "event"
    },
    {
      "anonymous": false,
      "inputs": [
        {
          "components": [
            {
              "internalType": "uint32",
              "name": "eid",
              "type": "uint32"
            },
            {
              "internalType": "uint16",
              "name": "msgType",
              "type": "uint16"
            },
            {
              "internalType": "bytes",
              "name": "options",
              "type": "bytes"
            }
          ],
          "indexed": false,
          "internalType": "struct EnforcedOptionParam[]",
          "name": "_enforcedOptions",
          "type": "tuple[]"
        }
      ],
      "name": "EnforcedOptionSet",
      "type": "event"
    },
    {
      "anonymous": false,
      "inputs": [
        {
          "indexed": false,
          "internalType": "address",
          "name": "inspector",
          "type": "address"
        }
      ],
      "name": "MsgInspectorSet",
      "type": "event"
    },
    {
      "anonymous": false,
      "inputs": [
        {
          "indexed": true,
          "internalType": "bytes32",
          "name": "guid",
          "type": "bytes32"
        },
        {
          "indexed": false,
          "internalType": "uint32",
          "name": "srcEid",
          "type": "uint32"
        },
        {
          "indexed": true,
          "internalType": "address",
          "name": "toAddress",
          "type": "address"
        },
        {
          "indexed": false,
          "internalType": "uint256",
          "name": "tokenId",
          "type": "uint256"
        }
      ],
      "name": "ONFTReceived",
      "type": "event"
    },
    {
      "anonymous": false,
      "inputs": [
        {
          "indexed": true,
          "internalType": "bytes32",
          "name": "guid",
          "type": "bytes32"
        },
        {
          "indexed": false,
          "internalType": "uint32",
          "name": "dstEid",
          "type": "uint32"
        },
        {
          "indexed": true,
          "internalType": "address",
          "name": "fromAddress",
          "type": "address"
        },
        {
          "indexed": false,
          "internalType": "uint256",
          "name": "tokenId",
          "type": "uint256"
        }
      ],
      "name": "ONFTSent",
      "type": "event"
    },
    {
      "anonymous": false,
      "inputs": [
        {
          "indexed": true,
          "internalType": "address",
          "name": "previousOwner",
          "type": "address"
        },
        {
          "indexed": true,
          "internalType": "address",
          "name": "newOwner",
          "type": "address"
        }
      ],
      "name": "OwnershipTransferred",
      "type": "event"
    },
    {
      "anonymous": false,
      "inputs": [
        {
          "indexed": false,
          "internalType": "uint32",
          "name": "eid",
          "type": "uint32"
        },
        {
          "indexed": false,
          "internalType": "bytes32",
          "name": "peer",
          "type": "bytes32"
        }
      ],
      "name": "PeerSet",
      "type": "event"
    },
    {
      "anonymous": false,
      "inputs": [
        {
          "indexed": false,
          "internalType": "address",
          "name": "preCrimeAddress",
          "type": "address"
        }
      ],
      "name": "PreCrimeSet",
      "type": "event"
    },
    {
      "anonymous": false,
      "inputs": [
        {
          "indexed": true,
          "internalType": "address",
          "name": "from",
          "type": "address"
        },
        {
          "indexed": true,
          "internalType": "address",
          "name": "to",
          "type": "address"
        },
        {
          "indexed": true,
          "internalType": "uint256",
          "name": "tokenId",
          "type": "uint256"
        }
      ],
      "name": "Transfer",
      "type": "event"
    },
    {
      "inputs": [],
      "name": "FUNGIBLEMOOD",
      "outputs": [
        {
          "internalType": "contract IFungibleMood",
          "name": "",
          "type": "address"
        }
      ],
      "stateMutability": "view",
      "type": "function"
    },
    {
      "inputs": [],
      "name": "MOODBANK",
      "outputs": [
        {
          "internalType": "contract IMoodBank",
          "name": "",
          "type": "address"
        }
      ],
      "stateMutability": "view",
      "type": "function"
    },
    {
      "inputs": [],
      "name": "SEND",
      "outputs": [
        {
          "internalType": "uint16",
          "name": "",
          "type": "uint16"
        }
      ],
      "stateMutability": "view",
      "type": "function"
    },
    {
      "inputs": [],
      "name": "SEND_AND_COMPOSE",
      "outputs": [
        {
          "internalType": "uint16",
          "name": "",
          "type": "uint16"
        }
      ],
      "stateMutability": "view",
      "type": "function"
    },
    {
      "inputs": [],
      "name": "VISUALENGINE",
      "outputs": [
        {
          "internalType": "contract IVisualEngine",
          "name": "",
          "type": "address"
        }
      ],
      "stateMutability": "view",
      "type": "function"
    },
    {
      "inputs": [
        {
          "components": [
            {
              "internalType": "uint32",
              "name": "srcEid",
              "type": "uint32"
            },
            {
              "internalType": "bytes32",
              "name": "sender",
              "type": "bytes32"
            },
            {
              "internalType": "uint64",
              "name": "nonce",
              "type": "uint64"
            }
          ],
          "internalType": "struct Origin",
          "name": "origin",
          "type": "tuple"
        }
      ],
      "name": "allowInitializePath",
      "outputs": [
        {
          "internalType": "bool",
          "name": "",
          "type": "bool"
        }
      ],
      "stateMutability": "view",
      "type": "function"
    },
    {
      "inputs": [],
      "name": "approvalRequired",
      "outputs": [
        {
          "internalType": "bool",
          "name": "",
          "type": "bool"
        }
      ],
      "stateMutability": "pure",
      "type": "function"
    },
    {
      "inputs": [
        {
          "internalType": "address",
          "name": "to",
          "type": "address"
        },
        {
          "internalType": "uint256",
          "name": "tokenId",
          "type": "uint256"
        }
      ],
      "name": "approve",
      "outputs": [],
      "stateMutability": "nonpayable",
      "type": "function"
    },
    {
      "inputs": [
        {
          "internalType": "address",
          "name": "owner",
          "type": "address"
        }
      ],
      "name": "balanceOf",
      "outputs": [
        {
          "internalType": "uint256",
          "name": "",
          "type": "uint256"
        }
      ],
      "stateMutability": "view",
      "type": "function"
    },
    {
      "inputs": [
        {
          "internalType": "uint256",
          "name": "tokenId",
          "type": "uint256"
        }
      ],
      "name": "burn",
      "outputs": [],
      "stateMutability": "nonpayable",
      "type": "function"
    },
    {
      "inputs": [],
      "name": "chainId",
      "outputs": [
        {
          "internalType": "uint256",
          "name": "",
          "type": "uint256"
        }
      ],
      "stateMutability": "view",
      "type": "function"
    },
    {
      "inputs": [
        {
          "internalType": "address",
          "name": "_receiver",
          "type": "address"
        },
        {
          "internalType": "uint256",
          "name": "tokenId",
          "type": "uint256"
        }
      ],
      "name": "claimReward",
      "outputs": [],
      "stateMutability": "nonpayable",
      "type": "function"
    },
    {
      "inputs": [
        {
          "internalType": "uint256",
          "name": "tokenId",
          "type": "uint256"
        }
      ],
      "name": "claimed",
      "outputs": [
        {
          "internalType": "bool",
          "name": "",
          "type": "bool"
        }
      ],
      "stateMutability": "view",
      "type": "function"
    },
    {
      "inputs": [
        {
          "internalType": "uint32",
          "name": "_eid",
          "type": "uint32"
        },
        {
          "internalType": "uint16",
          "name": "_msgType",
          "type": "uint16"
        },
        {
          "internalType": "bytes",
          "name": "_extraOptions",
          "type": "bytes"
        }
      ],
      "name": "combineOptions",
      "outputs": [
        {
          "internalType": "bytes",
          "name": "",
          "type": "bytes"
        }
      ],
      "stateMutability": "view",
      "type": "function"
    },
    {
      "inputs": [],
      "name": "connected",
      "outputs": [
        {
          "internalType": "bool",
          "name": "",
          "type": "bool"
        }
      ],
      "stateMutability": "view",
      "type": "function"
    },
    {
      "inputs": [],
      "name": "endpoint",
      "outputs": [
        {
          "internalType": "contract ILayerZeroEndpointV2",
          "name": "",
          "type": "address"
        }
      ],
      "stateMutability": "view",
      "type": "function"
    },
    {
      "inputs": [
        {
          "internalType": "uint32",
          "name": "eid",
          "type": "uint32"
        },
        {
          "internalType": "uint16",
          "name": "msgType",
          "type": "uint16"
        }
      ],
      "name": "enforcedOptions",
      "outputs": [
        {
          "internalType": "bytes",
          "name": "enforcedOption",
          "type": "bytes"
        }
      ],
      "stateMutability": "view",
      "type": "function"
    },
    {
      "inputs": [
        {
          "internalType": "uint256",
          "name": "tokenId",
          "type": "uint256"
        }
      ],
      "name": "generateTokenId",
      "outputs": [
        {
          "internalType": "uint256",
          "name": "id",
          "type": "uint256"
        }
      ],
      "stateMutability": "view",
      "type": "function"
    },
    {
      "inputs": [
        {
          "internalType": "uint256",
          "name": "tokenId",
          "type": "uint256"
        }
      ],
      "name": "getApproved",
      "outputs": [
        {
          "internalType": "address",
          "name": "",
          "type": "address"
        }
      ],
      "stateMutability": "view",
      "type": "function"
    },
    {
      "inputs": [
        {
          "internalType": "uint256",
          "name": "tokenId",
          "type": "uint256"
        }
      ],
      "name": "getMetadata",
      "outputs": [
        {
          "internalType": "string",
          "name": "",
          "type": "string"
        }
      ],
      "stateMutability": "view",
      "type": "function"
    },
    {
      "inputs": [
        {
          "internalType": "uint256",
          "name": "tokenId",
          "type": "uint256"
        }
      ],
      "name": "getMoodId",
      "outputs": [
        {
          "internalType": "uint256",
          "name": "",
          "type": "uint256"
        }
      ],
      "stateMutability": "view",
      "type": "function"
    },
    {
      "inputs": [
        {
          "internalType": "address",
          "name": "owner",
          "type": "address"
        },
        {
          "internalType": "address",
          "name": "operator",
          "type": "address"
        }
      ],
      "name": "isApprovedForAll",
      "outputs": [
        {
          "internalType": "bool",
          "name": "",
          "type": "bool"
        }
      ],
      "stateMutability": "view",
      "type": "function"
    },
    {
      "inputs": [
        {
          "components": [
            {
              "internalType": "uint32",
              "name": "srcEid",
              "type": "uint32"
            },
            {
              "internalType": "bytes32",
              "name": "sender",
              "type": "bytes32"
            },
            {
              "internalType": "uint64",
              "name": "nonce",
              "type": "uint64"
            }
          ],
          "internalType": "struct Origin",
          "name": "",
          "type": "tuple"
        },
        {
          "internalType": "bytes",
          "name": "",
          "type": "bytes"
        },
        {
          "internalType": "address",
          "name": "_sender",
          "type": "address"
        }
      ],
      "name": "isComposeMsgSender",
      "outputs": [
        {
          "internalType": "bool",
          "name": "",
          "type": "bool"
        }
      ],
      "stateMutability": "view",
      "type": "function"
    },
    {
      "inputs": [
        {
          "internalType": "uint32",
          "name": "_eid",
          "type": "uint32"
        },
        {
          "internalType": "bytes32",
          "name": "_peer",
          "type": "bytes32"
        }
      ],
      "name": "isPeer",
      "outputs": [
        {
          "internalType": "bool",
          "name": "",
          "type": "bool"
        }
      ],
      "stateMutability": "view",
      "type": "function"
    },
    {
      "inputs": [
        {
          "components": [
            {
              "internalType": "uint32",
              "name": "srcEid",
              "type": "uint32"
            },
            {
              "internalType": "bytes32",
              "name": "sender",
              "type": "bytes32"
            },
            {
              "internalType": "uint64",
              "name": "nonce",
              "type": "uint64"
            }
          ],
          "internalType": "struct Origin",
          "name": "_origin",
          "type": "tuple"
        },
        {
          "internalType": "bytes32",
          "name": "_guid",
          "type": "bytes32"
        },
        {
          "internalType": "bytes",
          "name": "_message",
          "type": "bytes"
        },
        {
          "internalType": "address",
          "name": "_executor",
          "type": "address"
        },
        {
          "internalType": "bytes",
          "name": "_extraData",
          "type": "bytes"
        }
      ],
      "name": "lzReceive",
      "outputs": [],
      "stateMutability": "payable",
      "type": "function"
    },
    {
      "inputs": [
        {
          "components": [
            {
              "components": [
                {
                  "internalType": "uint32",
                  "name": "srcEid",
                  "type": "uint32"
                },
                {
                  "internalType": "bytes32",
                  "name": "sender",
                  "type": "bytes32"
                },
                {
                  "internalType": "uint64",
                  "name": "nonce",
                  "type": "uint64"
                }
              ],
              "internalType": "struct Origin",
              "name": "origin",
              "type": "tuple"
            },
            {
              "internalType": "uint32",
              "name": "dstEid",
              "type": "uint32"
            },
            {
              "internalType": "address",
              "name": "receiver",
              "type": "address"
            },
            {
              "internalType": "bytes32",
              "name": "guid",
              "type": "bytes32"
            },
            {
              "internalType": "uint256",
              "name": "value",
              "type": "uint256"
            },
            {
              "internalType": "address",
              "name": "executor",
              "type": "address"
            },
            {
              "internalType": "bytes",
              "name": "message",
              "type": "bytes"
            },
            {
              "internalType": "bytes",
              "name": "extraData",
              "type": "bytes"
            }
          ],
          "internalType": "struct InboundPacket[]",
          "name": "_packets",
          "type": "tuple[]"
        }
      ],
      "name": "lzReceiveAndRevert",
      "outputs": [],
      "stateMutability": "payable",
      "type": "function"
    },
    {
      "inputs": [
        {
          "components": [
            {
              "internalType": "uint32",
              "name": "srcEid",
              "type": "uint32"
            },
            {
              "internalType": "bytes32",
              "name": "sender",
              "type": "bytes32"
            },
            {
              "internalType": "uint64",
              "name": "nonce",
              "type": "uint64"
            }
          ],
          "internalType": "struct Origin",
          "name": "_origin",
          "type": "tuple"
        },
        {
          "internalType": "bytes32",
          "name": "_guid",
          "type": "bytes32"
        },
        {
          "internalType": "bytes",
          "name": "_message",
          "type": "bytes"
        },
        {
          "internalType": "address",
          "name": "_executor",
          "type": "address"
        },
        {
          "internalType": "bytes",
          "name": "_extraData",
          "type": "bytes"
        }
      ],
      "name": "lzReceiveSimulate",
      "outputs": [],
      "stateMutability": "payable",
      "type": "function"
    },
    {
      "inputs": [
        {
          "internalType": "bytes",
          "name": "moodData",
          "type": "bytes"
        }
      ],
      "name": "migrate",
      "outputs": [],
      "stateMutability": "payable",
      "type": "function"
    },
    {
      "inputs": [],
      "name": "migrating",
      "outputs": [
        {
          "internalType": "bool",
          "name": "",
          "type": "bool"
        }
      ],
      "stateMutability": "view",
      "type": "function"
    },
    {
      "inputs": [
        {
          "internalType": "bool",
          "name": "payNative",
          "type": "bool"
        },
        {
          "internalType": "bytes",
          "name": "moodData",
          "type": "bytes"
        }
      ],
      "name": "mint",
      "outputs": [
        {
          "internalType": "uint256",
          "name": "",
          "type": "uint256"
        }
      ],
      "stateMutability": "payable",
      "type": "function"
    },
    {
      "inputs": [
        {
          "internalType": "uint256",
          "name": "tokenId",
          "type": "uint256"
        }
      ],
      "name": "moodIds",
      "outputs": [
        {
          "internalType": "uint256",
          "name": "",
          "type": "uint256"
        }
      ],
      "stateMutability": "view",
      "type": "function"
    },
    {
      "inputs": [],
      "name": "msgInspector",
      "outputs": [
        {
          "internalType": "address",
          "name": "",
          "type": "address"
        }
      ],
      "stateMutability": "view",
      "type": "function"
    },
    {
      "inputs": [],
      "name": "name",
      "outputs": [
        {
          "internalType": "string",
          "name": "",
          "type": "string"
        }
      ],
      "stateMutability": "view",
      "type": "function"
    },
    {
      "inputs": [
        {
          "internalType": "uint32",
          "name": "",
          "type": "uint32"
        },
        {
          "internalType": "bytes32",
          "name": "",
          "type": "bytes32"
        }
      ],
      "name": "nextNonce",
      "outputs": [
        {
          "internalType": "uint64",
          "name": "nonce",
          "type": "uint64"
        }
      ],
      "stateMutability": "view",
      "type": "function"
    },
    {
      "inputs": [],
      "name": "oApp",
      "outputs": [
        {
          "internalType": "address",
          "name": "",
          "type": "address"
        }
      ],
      "stateMutability": "view",
      "type": "function"
    },
    {
      "inputs": [],
      "name": "oAppVersion",
      "outputs": [
        {
          "internalType": "uint64",
          "name": "senderVersion",
          "type": "uint64"
        },
        {
          "internalType": "uint64",
          "name": "receiverVersion",
          "type": "uint64"
        }
      ],
      "stateMutability": "pure",
      "type": "function"
    },
    {
      "inputs": [],
      "name": "onftVersion",
      "outputs": [
        {
          "internalType": "bytes4",
          "name": "interfaceId",
          "type": "bytes4"
        },
        {
          "internalType": "uint64",
          "name": "version",
          "type": "uint64"
        }
      ],
      "stateMutability": "pure",
      "type": "function"
    },
    {
      "inputs": [],
      "name": "owner",
      "outputs": [
        {
          "internalType": "address",
          "name": "",
          "type": "address"
        }
      ],
      "stateMutability": "view",
      "type": "function"
    },
    {
      "inputs": [
        {
          "internalType": "uint256",
          "name": "tokenId",
          "type": "uint256"
        }
      ],
      "name": "ownerOf",
      "outputs": [
        {
          "internalType": "address",
          "name": "",
          "type": "address"
        }
      ],
      "stateMutability": "view",
      "type": "function"
    },
    {
      "inputs": [
        {
          "internalType": "uint32",
          "name": "eid",
          "type": "uint32"
        }
      ],
      "name": "peers",
      "outputs": [
        {
          "internalType": "bytes32",
          "name": "peer",
          "type": "bytes32"
        }
      ],
      "stateMutability": "view",
      "type": "function"
    },
    {
      "inputs": [],
      "name": "preCrime",
      "outputs": [
        {
          "internalType": "address",
          "name": "",
          "type": "address"
        }
      ],
      "stateMutability": "view",
      "type": "function"
    },
    {
      "inputs": [
        {
          "internalType": "bytes",
          "name": "moodData",
          "type": "bytes"
        }
      ],
      "name": "premint",
      "outputs": [],
      "stateMutability": "nonpayable",
      "type": "function"
    },
    {
      "inputs": [
        {
          "internalType": "uint256",
          "name": "supply",
          "type": "uint256"
        }
      ],
      "name": "price",
      "outputs": [
        {
          "internalType": "uint256",
          "name": "",
          "type": "uint256"
        }
      ],
      "stateMutability": "pure",
      "type": "function"
    },
    {
      "inputs": [],
      "name": "pricedTokens",
      "outputs": [
        {
          "internalType": "uint256",
          "name": "",
          "type": "uint256"
        }
      ],
      "stateMutability": "view",
      "type": "function"
    },
    {
      "inputs": [
        {
          "components": [
            {
              "internalType": "uint32",
              "name": "dstEid",
              "type": "uint32"
            },
            {
              "internalType": "bytes32",
              "name": "to",
              "type": "bytes32"
            },
            {
              "internalType": "uint256",
              "name": "tokenId",
              "type": "uint256"
            },
            {
              "internalType": "bytes",
              "name": "extraOptions",
              "type": "bytes"
            },
            {
              "internalType": "bytes",
              "name": "composeMsg",
              "type": "bytes"
            },
            {
              "internalType": "bytes",
              "name": "onftCmd",
              "type": "bytes"
            }
          ],
          "internalType": "struct SendParam",
          "name": "_sendParam",
          "type": "tuple"
        },
        {
          "internalType": "bool",
          "name": "_payInLzToken",
          "type": "bool"
        }
      ],
      "name": "quoteSend",
      "outputs": [
        {
          "components": [
            {
              "internalType": "uint256",
              "name": "nativeFee",
              "type": "uint256"
            },
            {
              "internalType": "uint256",
              "name": "lzTokenFee",
              "type": "uint256"
            }
          ],
          "internalType": "struct MessagingFee",
          "name": "msgFee",
          "type": "tuple"
        }
      ],
      "stateMutability": "view",
      "type": "function"
    },
    {
      "inputs": [],
      "name": "renounceOwnership",
      "outputs": [],
      "stateMutability": "nonpayable",
      "type": "function"
    },
    {
      "inputs": [
        {
          "internalType": "address",
          "name": "from",
          "type": "address"
        },
        {
          "internalType": "address",
          "name": "to",
          "type": "address"
        },
        {
          "internalType": "uint256",
          "name": "tokenId",
          "type": "uint256"
        }
      ],
      "name": "safeTransferFrom",
      "outputs": [],
      "stateMutability": "nonpayable",
      "type": "function"
    },
    {
      "inputs": [
        {
          "internalType": "address",
          "name": "from",
          "type": "address"
        },
        {
          "internalType": "address",
          "name": "to",
          "type": "address"
        },
        {
          "internalType": "uint256",
          "name": "tokenId",
          "type": "uint256"
        },
        {
          "internalType": "bytes",
          "name": "data",
          "type": "bytes"
        }
      ],
      "name": "safeTransferFrom",
      "outputs": [],
      "stateMutability": "nonpayable",
      "type": "function"
    },
    {
      "inputs": [
        {
          "components": [
            {
              "internalType": "uint32",
              "name": "dstEid",
              "type": "uint32"
            },
            {
              "internalType": "bytes32",
              "name": "to",
              "type": "bytes32"
            },
            {
              "internalType": "uint256",
              "name": "tokenId",
              "type": "uint256"
            },
            {
              "internalType": "bytes",
              "name": "extraOptions",
              "type": "bytes"
            },
            {
              "internalType": "bytes",
              "name": "composeMsg",
              "type": "bytes"
            },
            {
              "internalType": "bytes",
              "name": "onftCmd",
              "type": "bytes"
            }
          ],
          "internalType": "struct SendParam",
          "name": "_sendParam",
          "type": "tuple"
        },
        {
          "components": [
            {
              "internalType": "uint256",
              "name": "nativeFee",
              "type": "uint256"
            },
            {
              "internalType": "uint256",
              "name": "lzTokenFee",
              "type": "uint256"
            }
          ],
          "internalType": "struct MessagingFee",
          "name": "_fee",
          "type": "tuple"
        },
        {
          "internalType": "address",
          "name": "_refundAddress",
          "type": "address"
        }
      ],
      "name": "send",
      "outputs": [
        {
          "components": [
            {
              "internalType": "bytes32",
              "name": "guid",
              "type": "bytes32"
            },
            {
              "internalType": "uint64",
              "name": "nonce",
              "type": "uint64"
            },
            {
              "components": [
                {
                  "internalType": "uint256",
                  "name": "nativeFee",
                  "type": "uint256"
                },
                {
                  "internalType": "uint256",
                  "name": "lzTokenFee",
                  "type": "uint256"
                }
              ],
              "internalType": "struct MessagingFee",
              "name": "fee",
              "type": "tuple"
            }
          ],
          "internalType": "struct MessagingReceipt",
          "name": "msgReceipt",
          "type": "tuple"
        }
      ],
      "stateMutability": "payable",
      "type": "function"
    },
    {
      "inputs": [
        {
          "internalType": "address",
          "name": "operator",
          "type": "address"
        },
        {
          "internalType": "bool",
          "name": "approved",
          "type": "bool"
        }
      ],
      "name": "setApprovalForAll",
      "outputs": [],
      "stateMutability": "nonpayable",
      "type": "function"
    },
    {
      "inputs": [
        {
          "internalType": "string",
          "name": "_baseTokenURI",
          "type": "string"
        }
      ],
      "name": "setBaseURI",
      "outputs": [],
      "stateMutability": "nonpayable",
      "type": "function"
    },
    {
      "inputs": [
        {
          "internalType": "address",
          "name": "_delegate",
          "type": "address"
        }
      ],
      "name": "setDelegate",
      "outputs": [],
      "stateMutability": "nonpayable",
      "type": "function"
    },
    {
      "inputs": [
        {
          "components": [
            {
              "internalType": "uint32",
              "name": "eid",
              "type": "uint32"
            },
            {
              "internalType": "uint16",
              "name": "msgType",
              "type": "uint16"
            },
            {
              "internalType": "bytes",
              "name": "options",
              "type": "bytes"
            }
          ],
          "internalType": "struct EnforcedOptionParam[]",
          "name": "_enforcedOptions",
          "type": "tuple[]"
        }
      ],
      "name": "setEnforcedOptions",
      "outputs": [],
      "stateMutability": "nonpayable",
      "type": "function"
    },
    {
      "inputs": [
        {
          "internalType": "address",
          "name": "_msgInspector",
          "type": "address"
        }
      ],
      "name": "setMsgInspector",
      "outputs": [],
      "stateMutability": "nonpayable",
      "type": "function"
    },
    {
      "inputs": [
        {
          "internalType": "uint32",
          "name": "_eid",
          "type": "uint32"
        },
        {
          "internalType": "bytes32",
          "name": "_peer",
          "type": "bytes32"
        }
      ],
      "name": "setPeer",
      "outputs": [],
      "stateMutability": "nonpayable",
      "type": "function"
    },
    {
      "inputs": [
        {
          "internalType": "address",
          "name": "_preCrime",
          "type": "address"
        }
      ],
      "name": "setPreCrime",
      "outputs": [],
      "stateMutability": "nonpayable",
      "type": "function"
    },
    {
      "inputs": [
        {
          "internalType": "address",
          "name": "_fungibleMood",
          "type": "address"
        }
      ],
      "name": "setupFungibleMood",
      "outputs": [],
      "stateMutability": "nonpayable",
      "type": "function"
    },
    {
      "inputs": [
        {
          "internalType": "address",
          "name": "_moodBank",
          "type": "address"
        }
      ],
      "name": "setupMoodBank",
      "outputs": [],
      "stateMutability": "nonpayable",
      "type": "function"
    },
    {
      "inputs": [
        {
          "internalType": "address",
          "name": "_visualEngine",
          "type": "address"
        }
      ],
      "name": "setupVisualEngine",
      "outputs": [],
      "stateMutability": "nonpayable",
      "type": "function"
    },
    {
      "inputs": [
        {
          "internalType": "bytes4",
          "name": "interfaceId",
          "type": "bytes4"
        }
      ],
      "name": "supportsInterface",
      "outputs": [
        {
          "internalType": "bool",
          "name": "",
          "type": "bool"
        }
      ],
      "stateMutability": "view",
      "type": "function"
    },
    {
      "inputs": [],
      "name": "symbol",
      "outputs": [
        {
          "internalType": "string",
          "name": "",
          "type": "string"
        }
      ],
      "stateMutability": "view",
      "type": "function"
    },
    {
      "inputs": [],
      "name": "token",
      "outputs": [
        {
          "internalType": "address",
          "name": "",
          "type": "address"
        }
      ],
      "stateMutability": "view",
      "type": "function"
    },
    {
      "inputs": [],
      "name": "tokenIds",
      "outputs": [
        {
          "internalType": "uint256",
          "name": "",
          "type": "uint256"
        }
      ],
      "stateMutability": "view",
      "type": "function"
    },
    {
      "inputs": [
        {
          "internalType": "uint256",
          "name": "tokenId",
          "type": "uint256"
        }
      ],
      "name": "tokenURI",
      "outputs": [
        {
          "internalType": "string",
          "name": "",
          "type": "string"
        }
      ],
      "stateMutability": "view",
      "type": "function"
    },
    {
      "inputs": [],
      "name": "totalSupply",
      "outputs": [
        {
          "internalType": "uint256",
          "name": "",
          "type": "uint256"
        }
      ],
      "stateMutability": "view",
      "type": "function"
    },
    {
      "inputs": [
        {
          "internalType": "address",
          "name": "from",
          "type": "address"
        },
        {
          "internalType": "address",
          "name": "to",
          "type": "address"
        },
        {
          "internalType": "uint256",
          "name": "tokenId",
          "type": "uint256"
        }
      ],
      "name": "transferFrom",
      "outputs": [],
      "stateMutability": "nonpayable",
      "type": "function"
    },
    {
      "inputs": [
        {
          "internalType": "address",
          "name": "newOwner",
          "type": "address"
        }
      ],
      "name": "transferOwnership",
      "outputs": [],
      "stateMutability": "nonpayable",
      "type": "function"
    },
    {
      "inputs": [],
      "name": "treasury",
      "outputs": [
        {
          "internalType": "address",
          "name": "",
          "type": "address"
        }
      ],
      "stateMutability": "view",
      "type": "function"
    },
    {
      "inputs": [
        {
          "internalType": "uint256",
          "name": "tokenId",
          "type": "uint256"
        },
        {
          "internalType": "uint256",
          "name": "moodId",
          "type": "uint256"
        }
      ],
      "name": "update",
      "outputs": [
        {
          "internalType": "uint256",
          "name": "",
          "type": "uint256"
        }
      ],
      "stateMutability": "payable",
      "type": "function"
    },
    {
      "inputs": [
        {
          "internalType": "address",
          "name": "_treasury",
          "type": "address"
        }
      ],
      "name": "updateTreasury",
      "outputs": [],
      "stateMutability": "nonpayable",
      "type": "function"
    }
  ],
  "transactionHash": "0xc1c8049b0d814849d7306cedc88b6926c6bdd179a22f98ec715f03ae64db4ae2",
  "args": [
    "0x6EDCE65403992e310A62460808c4b910D972f10f",
    "0x0000704b5427D1BE19059Ee68BAdb88935E6079a",
    84532
  ],
  "numDeployments": 4,
  "solcInputHash": "2bf9c610175faad9d09491c18b56057a",
  "bytecode": "0x60c0604052600e805461ffff60a01b191690556000601081905560118190556012553480156200002e57600080fd5b5060405162004daf38038062004daf833981016040819052620000519162000232565b6040805180820182526011815270139bdb8b519d5b99da589b1948135bdbd9607a1b602080830191909152825180840190935260038352624e464d60e81b908301529084848383838381818181806001600160a01b038116620000ce57604051631e4fbdf760e01b81526000600482015260240160405180910390fd5b620000d981620001c5565b506001600160a01b0380831660805281166200010857604051632d618d8160e21b815260040160405180910390fd5b60805160405163ca5eb5e160e01b81526001600160a01b0383811660048301529091169063ca5eb5e190602401600060405180830381600087803b1580156200015057600080fd5b505af115801562000165573d6000803e3d6000fd5b5050505050505050505081600590816200018091906200031a565b5060066200018f82826200031a565b5050600f80546001600160a01b0319166001600160a01b03989098169790971790965550505060a09190915250620003e6915050565b600080546001600160a01b038381166001600160a01b0319831681178455604051919092169283917f8be0079c531659141344cd1fd0a4f28419497f9722a3daafe3b4186f6b6457e09190a35050565b80516001600160a01b03811681146200022d57600080fd5b919050565b6000806000606084860312156200024857600080fd5b620002538462000215565b9250620002636020850162000215565b9150604084015190509250925092565b634e487b7160e01b600052604160045260246000fd5b600181811c908216806200029e57607f821691505b602082108103620002bf57634e487b7160e01b600052602260045260246000fd5b50919050565b601f82111562000315576000816000526020600020601f850160051c81016020861015620002f05750805b601f850160051c820191505b818110156200031157828155600101620002fc565b5050505b505050565b81516001600160401b0381111562000336576200033662000273565b6200034e8162000347845462000289565b84620002c5565b602080601f8311600181146200038657600084156200036d5750858301515b600019600386901b1c1916600185901b17855562000311565b600085815260208120601f198616915b82811015620003b75788860151825594840194600190910190840162000396565b5085821015620003d65787850151600019600388901b60f8161c191681555b5050505050600190811b01905550565b60805160a05161496b62000444600039600081816109dd015261199a01526000818161082701528181610e110152818161207801528181612306015281816125aa01528181612e83015281816131880152613241015261496b6000f3fe6080604052600436106104055760003560e01c8063714cff5611610213578063b88d4fde11610123578063d045a0dc116100ab578063f2fde38b1161007a578063f2fde38b14610c73578063f5dbfd7414610c93578063f9f469b114610cb3578063fc0c546a1461076b578063ff7bd03d14610cd357600080fd5b8063d045a0dc14610bf0578063d424388514610c03578063dbe7e3bd14610c23578063e985e9c514610c5357600080fd5b8063bc70b354116100f2578063bc70b35414610b50578063bd815db014610b70578063c6414e7b14610b83578063c87b56dd14610bb0578063ca5eb5e114610bd057600080fd5b8063b88d4fde14610ad0578063b93b756b14610af0578063b98bd07014610b03578063bb0b6a5314610b2357600080fd5b8063988e0d17116101a6578063a22cb46511610175578063a22cb46514610a33578063a574cea414610a53578063a72f5dd814610a73578063b21a33e414610a9b578063b731ea0a14610ab057600080fd5b8063988e0d17146109b55780639a8a0592146109cb5780639c545909146109ff5780639f68b96414610a1f57600080fd5b806382413eac116101e257806382413eac1461094f5780638932a90d1461096f5780638da5cb5b1461098257806395d89b41146109a057600080fd5b8063714cff56146108c9578063715018a6146108df5780637d25a05e146108f45780637f51bb1f1461092f57600080fd5b8063413c6bf1116103195780635535d461116102a15780635e280f11116102705780635e280f111461081557806361d027b3146108495780636352211e146108695780636fc1b31e1461088957806370a08231146108a957600080fd5b80635535d4611461077e57806355f7554a1461079e57806355f804b3146107be5780635a0dfe4d146107de57600080fd5b80634882af73116102e85780634882af73146106dd578063492119a5146106fd5780634956cf1c1461072a5780634ee618081461074b57806352ae28791461076b57600080fd5b8063413c6bf11461065057806342842e0e1461067d57806342966c681461069d57806346ecf78e146106bd57600080fd5b806318160ddd1161039c57806323b872dd1161036b57806323b872dd146105bd57806326a49e37146105dd5780632fb565e8146105fd5780633400288b1461061057806338b376361461063057600080fd5b806318160ddd146105305780631f5e133414610554578063219cda291461057c57806321eb730b1461059d57600080fd5b8063111ecdad116103d8578063111ecdad146104bb57806313137d65146104db57806317442b70146104ee578063174e31c41461051057600080fd5b806301ffc9a71461040a57806306fdde031461043f578063081812fc14610461578063095ea7b314610499575b600080fd5b34801561041657600080fd5b5061042a610425366004613455565b610cf3565b60405190151581526020015b60405180910390f35b34801561044b57600080fd5b50610454610d45565b60405161043691906134c2565b34801561046d57600080fd5b5061048161047c3660046134d5565b610dd7565b6040516001600160a01b039091168152602001610436565b3480156104a557600080fd5b506104b96104b4366004613503565b610e00565b005b3480156104c757600080fd5b50600454610481906001600160a01b031681565b6104b96104e936600461358f565b610e0f565b3480156104fa57600080fd5b5060408051600181526002602082015201610436565b34801561051c57600080fd5b506104b961052b366004613503565b610ecf565b34801561053c57600080fd5b5061054660115481565b604051908152602001610436565b34801561056057600080fd5b50610569600181565b60405161ffff9091168152602001610436565b34801561058857600080fd5b50600e5461042a90600160a81b900460ff1681565b6105b06105ab366004613640565b610fbd565b60405161043691906136ad565b3480156105c957600080fd5b506104b96105d83660046136ef565b611076565b3480156105e957600080fd5b506105466105f83660046134d5565b611101565b61054661060b366004613730565b611130565b34801561061c57600080fd5b506104b961062b36600461376b565b6114ad565b34801561063c57600080fd5b506104b961064b366004613787565b6114bf565b34801561065c57600080fd5b5061054661066b3660046134d5565b60146020526000908152604090205481565b34801561068957600080fd5b506104b96106983660046136ef565b611557565b3480156106a957600080fd5b506104b96106b83660046134d5565b611572565b3480156106c957600080fd5b506104b96106d8366004613787565b61167d565b3480156106e957600080fd5b506104b96106f83660046137a4565b6116a7565b34801561070957600080fd5b506105466107183660046134d5565b60009081526014602052604090205490565b34801561073657600080fd5b50600e5461042a90600160a01b900460ff1681565b34801561075757600080fd5b506104b9610766366004613787565b611726565b34801561077757600080fd5b5030610481565b34801561078a57600080fd5b506104546107993660046137f7565b611750565b3480156107aa57600080fd5b50600c54610481906001600160a01b031681565b3480156107ca57600080fd5b506104b96107d93660046137a4565b6117f5565b3480156107ea57600080fd5b5061042a6107f936600461376b565b63ffffffff919091166000908152600160205260409020541490565b34801561082157600080fd5b506104817f000000000000000000000000000000000000000000000000000000000000000081565b34801561085557600080fd5b50600f54610481906001600160a01b031681565b34801561087557600080fd5b506104816108843660046134d5565b611847565b34801561089557600080fd5b506104b96108a4366004613787565b611852565b3480156108b557600080fd5b506105466108c4366004613787565b6118af565b3480156108d557600080fd5b5061054660105481565b3480156108eb57600080fd5b506104b96118f7565b34801561090057600080fd5b5061091761090f36600461376b565b600092915050565b6040516001600160401b039091168152602001610436565b34801561093b57600080fd5b506104b961094a366004613787565b61190b565b34801561095b57600080fd5b5061042a61096a36600461382a565b611935565b6104b961097d3660046137a4565b61194a565b34801561098e57600080fd5b506000546001600160a01b0316610481565b3480156109ac57600080fd5b50610454611983565b3480156109c157600080fd5b5061054660125481565b3480156109d757600080fd5b506105467f000000000000000000000000000000000000000000000000000000000000000081565b348015610a0b57600080fd5b50610546610a1a3660046134d5565b611992565b348015610a2b57600080fd5b50600061042a565b348015610a3f57600080fd5b506104b9610a4e36600461389e565b6119ce565b348015610a5f57600080fd5b50610454610a6e3660046134d5565b6119d9565b348015610a7f57600080fd5b50604080516311f0c6d360e11b81526001602082015201610436565b348015610aa757600080fd5b50610569600281565b348015610abc57600080fd5b50600254610481906001600160a01b031681565b348015610adc57600080fd5b506104b9610aeb366004613a07565b611a89565b610546610afe366004613a72565b611aa1565b348015610b0f57600080fd5b506104b9610b1e366004613b0a565b611ca8565b348015610b2f57600080fd5b50610546610b3e366004613b3f565b60016020526000908152604090205481565b348015610b5c57600080fd5b50610454610b6b366004613b5a565b611cc2565b6104b9610b7e366004613b0a565b611e6a565b348015610b8f57600080fd5b50610ba3610b9e366004613bba565b611ff4565b6040516104369190613c00565b348015610bbc57600080fd5b50610454610bcb3660046134d5565b61203a565b348015610bdc57600080fd5b506104b9610beb366004613787565b612051565b6104b9610bfe36600461358f565b6120d0565b348015610c0f57600080fd5b506104b9610c1e366004613787565b6120ff565b348015610c2f57600080fd5b5061042a610c3e3660046134d5565b60136020526000908152604090205460ff1681565b348015610c5f57600080fd5b5061042a610c6e366004613c17565b612155565b348015610c7f57600080fd5b506104b9610c8e366004613787565b612183565b348015610c9f57600080fd5b50600d54610481906001600160a01b031681565b348015610cbf57600080fd5b50600e54610481906001600160a01b031681565b348015610cdf57600080fd5b5061042a610cee366004613c45565b6121c1565b60006001600160e01b031982166380ac58cd60e01b1480610d2457506001600160e01b03198216635b5e139f60e01b145b80610d3f57506301ffc9a760e01b6001600160e01b03198316145b92915050565b606060058054610d5490613c61565b80601f0160208091040260200160405190810160405280929190818152602001828054610d8090613c61565b8015610dcd5780601f10610da257610100808354040283529160200191610dcd565b820191906000526020600020905b815481529060010190602001808311610db057829003601f168201915b5050505050905090565b6000610de2826121f7565b506000828152600960205260409020546001600160a01b0316610d3f565b610e0b828233612230565b5050565b7f00000000000000000000000000000000000000000000000000000000000000006001600160a01b03163314610e5f576040516391ac5e4f60e01b81523360048201526024015b60405180910390fd5b60208701803590610e7990610e74908a613b3f565b61223d565b14610eb757610e8b6020880188613b3f565b60405163309afaf360e21b815263ffffffff909116600482015260208801356024820152604401610e56565b610ec687878787878787612279565b50505050505050565b60008181526013602052604090205460ff1615610f205760405162461bcd60e51b815260206004820152600f60248201526e105b1c9958591e4818db185a5b5959608a1b6044820152606401610e56565b60008181526013602052604090819020805460ff19166001179055600c549051635569f64b60e11b81526001600160a01b038481166004830152670de0b6b3a764000060248301529091169063aad3ec96906044016020604051808303816000875af1158015610f94573d6000803e3d6000fd5b505050506040513d601f19601f82011682018060405250810190610fb89190613c95565b505050565b610fc56133f8565b610fe0336040860135610fdb6020880188613b3f565b6123d8565b600080610fec86612438565b90925090506110186110016020880188613b3f565b8383611012368a90038a018a613cb2565b88612577565b805190935033907f986156872b2ee0022b9585231dbbfde457f87f8a16b6c45e1a81c54c4ad8351f61104d60208a018a613b3f565b6040805163ffffffff9092168252808b013560208301520160405180910390a350509392505050565b6001600160a01b0382166110a057604051633250574960e11b815260006004820152602401610e56565b60006110ad838333612682565b9050836001600160a01b0316816001600160a01b0316146110fb576040516364283d7b60e01b81526001600160a01b0380861660048301526024820184905282166044820152606401610e56565b50505050565b600061110e600283613dde565b61111e906509184e72a000613ded565b610d3f90670de0b6b3a7640000613e04565b600061113b83611847565b6001600160a01b0316336001600160a01b0316146111875760405162461bcd60e51b81526020600482015260096024820152682737ba1037bbb732b960b91b6044820152606401610e56565b6111908361277b565b600e54604051630f1f16a560e11b8152600481018490526000916001600160a01b031690631e3e2d4a90602401600060405180830381865afa1580156111da573d6000803e3d6000fd5b505050506040513d6000823e601f3d908101601f191682016040526112029190810190613f30565b905061120d84611847565b6001600160a01b03168160e001516001600160a01b03161461125f5760405162461bcd60e51b815260206004820152600b60248201526a2737ba1031b932b0ba37b960a91b6044820152606401610e56565b600e5460405163c8ee6bc960e01b8152600481018590526001600160a01b039091169063610e457590829063c8ee6bc990602401602060405180830381865afa1580156112b0573d6000803e3d6000fd5b505050506040513d601f19601f820116820180604052508101906112d4919061402c565b6040518263ffffffff1660e01b81526004016112f291815260200190565b602060405180830381865afa15801561130f573d6000803e3d6000fd5b505050506040513d601f19601f820116820180604052508101906113339190613c95565b156113745760405162461bcd60e51b8152602060048201526011602482015270105b1c9958591e481d1bdad95b9a5e9959607a1b6044820152606401610e56565b6113848160e0015185600061286e565b6113c15760405162461bcd60e51b815260206004820152600e60248201526d14185e5b595b9d0819985a5b195960921b6044820152606401610e56565b600e5460405163c8ee6bc960e01b8152600481018590526000916001600160a01b03169063c8ee6bc990602401602060405180830381865afa15801561140b573d6000803e3d6000fd5b505050506040513d601f19601f8201168201806040525081019061142f919061402c565b600e5460405163c448a98760e01b815260048101839052600160248201529192506001600160a01b03169063c448a98790604401600060405180830381600087803b15801561147d57600080fd5b505af1158015611491573d6000803e3d6000fd5b5050506000958652505060146020525050604090912081905590565b6114b5612a0e565b610e0b8282612a3b565b6114c7612a0e565b600e54600160a81b900460ff16156115215760405162461bcd60e51b815260206004820152601f60248201527f46756e6769626c65204d6f6f6420616c726561647920636f6e6e6563746564006044820152606401610e56565b600c80546001600160a01b039092166001600160a01b0319909216919091179055600e805460ff60a81b1916600160a81b179055565b610fb883838360405180602001604052806000815250611a89565b600061157d82611847565b9050336001600160a01b038216146115d75760405162461bcd60e51b815260206004820152601860248201527f556e617574686f72697a6564206275726e2061636365737300000000000000006044820152606401610e56565b6115e082612a89565b601180549060006115f083614045565b9091555050600c54604051635569f64b60e11b81526001600160a01b038381166004830152670de0b6b3a764000060248301529091169063aad3ec96906044016020604051808303816000875af115801561164f573d6000803e3d6000fd5b505050506040513d601f19601f820116820180604052508101906116739190613c95565b50610e0b8261277b565b611685612a0e565b600d80546001600160a01b0319166001600160a01b0392909216919091179055565b600e546040516334f257e560e21b81526001600160a01b039091169063d3c95f94906116dc9085908590600090600401614085565b6060604051808303816000875af11580156116fb573d6000803e3d6000fd5b505050506040513d601f19601f8201168201806040525081019061171f91906140ab565b5050505050565b61172e612a0e565b600e80546001600160a01b0319166001600160a01b0392909216919091179055565b60036020908152600092835260408084209091529082529020805461177490613c61565b80601f01602080910402602001604051908101604052809291908181526020018280546117a090613c61565b80156117ed5780601f106117c2576101008083540402835291602001916117ed565b820191906000526020600020905b8154815290600101906020018083116117d057829003601f168201915b505050505081565b6117fd612a0e565b600b61180a82848361412b565b507ff9c7803e94e0d3c02900d8a90893a6d5e90dd04d32a4cfe825520f82bf9f32f6600b60405161183b91906141ea565b60405180910390a15050565b6000610d3f826121f7565b61185a612a0e565b600480546001600160a01b0319166001600160a01b0383169081179091556040519081527ff0be4f1e87349231d80c36b33f9e8639658eeaf474014dee15a3e6a4d4414197906020015b60405180910390a150565b60006001600160a01b0382166118db576040516322718ad960e21b815260006004820152602401610e56565b506001600160a01b031660009081526008602052604090205490565b6118ff612a0e565b6119096000612ac4565b565b611913612a0e565b600f80546001600160a01b0319166001600160a01b0392909216919091179055565b6001600160a01b03811630145b949350505050565b611952612a0e565b600e805460ff60a01b1916600160a01b17905561197160018383611aa1565b5050600e805460ff60a01b1916905550565b606060068054610d5490613c61565b6000816119c47f000000000000000000000000000000000000000000000000000000000000000064174876e800613ded565b610d3f9190613e04565b610e0b338383612b14565b600d546060906000906001600160a01b0316633a44315d846119fa81611847565b6000878152601460205260409020546040516001600160e01b031960e086901b16815260048101939093526001600160a01b0390911660248301526044820152606401600060405180830381865afa158015611a5a573d6000803e3d6000fd5b505050506040513d6000823e601f3d908101601f19168201604052611a82919081019061427a565b9392505050565b611a94848484611076565b6110fb3385858585612bb3565b600080611aaf601054611992565b600e546040516334f257e560e21b8152919250600091829182916001600160a01b039091169063d3c95f9490611aee908a908a90600190600401614085565b6060604051808303816000875af1158015611b0d573d6000803e3d6000fd5b505050506040513d601f19601f82011682018060405250810190611b3191906140ab565b919450925090506001600160a01b038216611b7b5760405162461bcd60e51b815260206004820152600a60248201526927379031b932b0ba37b960b11b6044820152606401610e56565b8015611bb55760405162461bcd60e51b8152602060048201526009602482015268151bdad95b9a5e995960ba1b6044820152606401610e56565b8715611c0957611bc6601254611101565b341015611c095760405162461bcd60e51b8152602060048201526011602482015270125b9cdd59999a58da595b9d08199d5b99607a1b6044820152606401610e56565b6000611c1683868b61286e565b905080611c565760405162461bcd60e51b815260206004820152600e60248201526d14185e5b595b9d0819985a5b195960921b6044820152606401610e56565b6000858152601460205260409020849055611c718386612cd5565b60108054906000611c81836142ae565b909155505060118054906000611c96836142ae565b90915550949998505050505050505050565b611cb0612a0e565b610e0b611cbd82846142c7565b612d3a565b63ffffffff8416600090815260036020908152604080832061ffff87168452909152812080546060929190611cf690613c61565b80601f0160208091040260200160405190810160405280929190818152602001828054611d2290613c61565b8015611d6f5780601f10611d4457610100808354040283529160200191611d6f565b820191906000526020600020905b815481529060010190602001808311611d5257829003601f168201915b505050505090508051600003611dbf5783838080601f0160208091040260200160405190810160405280939291908181526020018383808284376000920191909152509294506119429350505050565b6000839003611dcf579050611942565b60028310611e4d57611e1684848080601f016020809104026020016040519081016040528093929190818152602001838380828437600092019190915250612e4192505050565b80611e248460028188614390565b604051602001611e36939291906143ba565b604051602081830303815290604052915050611942565b8383604051639a6d49cd60e01b8152600401610e569291906143e2565b60005b81811015611f735736838383818110611e8857611e886143f6565b9050602002810190611e9a919061440c565b9050611ecd611eac6020830183613b3f565b602083013563ffffffff919091166000908152600160205260409020541490565b611ed75750611f6b565b3063d045a0dc60c08301358360a0810135611ef661010083018361442d565b611f07610100890160e08a01613787565b611f156101208a018a61442d565b6040518963ffffffff1660e01b8152600401611f379796959493929190614488565b6000604051808303818588803b158015611f5057600080fd5b505af1158015611f64573d6000803e3d6000fd5b5050505050505b600101611e6d565b50336001600160a01b0316638e9e70996040518163ffffffff1660e01b8152600401600060405180830381865afa158015611fb2573d6000803e3d6000fd5b505050506040513d6000823e601f3d908101601f19168201604052611fda919081019061450e565b604051638351eea760e01b8152600401610e5691906134c2565b604080518082019091526000808252602082015260008061201485612438565b90925090506120316120296020870187613b3f565b838387612e6d565b95945050505050565b6060612045826121f7565b506000611a82836119d9565b612059612a0e565b60405163ca5eb5e160e01b81526001600160a01b0382811660048301527f0000000000000000000000000000000000000000000000000000000000000000169063ca5eb5e190602401600060405180830381600087803b1580156120bc57600080fd5b505af115801561171f573d6000803e3d6000fd5b3330146120f05760405163029a949d60e31b815260040160405180910390fd5b610ec687878787878787610eb7565b612107612a0e565b600280546001600160a01b0319166001600160a01b0383169081179091556040519081527fd48d879cef83a1c0bdda516f27b13ddb1b3f8bbac1c9e1511bb2a659c2427760906020016118a4565b6001600160a01b039182166000908152600a6020908152604080832093909416825291909152205460ff1690565b61218b612a0e565b6001600160a01b0381166121b557604051631e4fbdf760e01b815260006004820152602401610e56565b6121be81612ac4565b50565b60006020820180359060019083906121d99086613b3f565b63ffffffff1681526020810191909152604001600020541492915050565b6000818152600760205260408120546001600160a01b031680610d3f57604051637e27328960e01b815260048101849052602401610e56565b610fb88383836001612f45565b63ffffffff811660009081526001602052604081205480610d3f5760405163f6ff4fb760e01b815263ffffffff84166004820152602401610e56565b600061228b612288878761304b565b90565b905060006122998787613063565b90506122b282826122ad60208d018d613b3f565b613073565b60408611156123765760006122ec6122d060608c0160408d01614556565b6122dd60208d018d613b3f565b6122e78b8b61307d565b6130c8565b604051633e5ac80960e11b81529091506001600160a01b037f00000000000000000000000000000000000000000000000000000000000000001690637cb59012906123429086908d906000908790600401614573565b600060405180830381600087803b15801561235c57600080fd5b505af1158015612370573d6000803e3d6000fd5b50505050505b6001600160a01b038216887f7883fa30ea56937810e36990b0bbb8d629d0cf59f68baf8431ff657cebe7eef56123af60208d018d613b3f565b6040805163ffffffff9092168252602082018690520160405180910390a3505050505050505050565b6123e182611847565b6001600160a01b0316836001600160a01b03161461242f578261240383611847565b604051634342715b60e11b81526001600160a01b03928316600482015291166024820152604401610e56565b610fb882612a89565b606080602083013561245d57604051631e4ec46b60e01b815260040160405180910390fd5b60006124b360208501356040860135612479608088018861442d565b8080601f0160208091040260200160405190810160405280939291908181526020018383808284376000920191909152506130f792505050565b90935090506000816124c65760016124c9565b60025b90506124e96124db6020870187613b3f565b82610b6b606089018961442d565b6004549093506001600160a01b0316801561256f5760405163043a78eb60e01b81526001600160a01b0382169063043a78eb9061252c90889088906004016145ae565b602060405180830381865afa158015612549573d6000803e3d6000fd5b505050506040513d601f19601f8201168201806040525081019061256d9190613c95565b505b505050915091565b61257f6133f8565b600061258e846000015161315c565b6020850151909150156125a8576125a88460200151613184565b7f00000000000000000000000000000000000000000000000000000000000000006001600160a01b0316632637a450826040518060a001604052808b63ffffffff1681526020016125f88c61223d565b81526020018a815260200189815260200160008960200151111515815250866040518463ffffffff1660e01b81526004016126349291906145d3565b60806040518083038185885af1158015612652573d6000803e3d6000fd5b50505050506040513d601f19601f82011682018060405250810190612677919061467c565b979650505050505050565b6000828152600760205260408120546001600160a01b03908116908316156126af576126af818486613266565b6001600160a01b038116156126ed576126cc600085600080612f45565b6001600160a01b038116600090815260086020526040902080546000190190555b6001600160a01b0385161561271c576001600160a01b0385166000908152600860205260409020805460010190555b60008481526007602052604080822080546001600160a01b0319166001600160a01b0389811691821790925591518793918516917fddf252ad1be2c89b69c2b068fc378daa952ba7f163c4a11628f55a4df523b3ef91a4949350505050565b600e546000906001600160a01b031663c8ee6bc96127a58460009081526014602052604090205490565b6040518263ffffffff1660e01b81526004016127c391815260200190565b602060405180830381865afa1580156127e0573d6000803e3d6000fd5b505050506040513d601f19601f82011682018060405250810190612804919061402c565b600e5460405163c448a98760e01b815260048101839052600060248201529192506001600160a01b03169063c448a98790604401600060405180830381600087803b15801561285257600080fd5b505af1158015612866573d6000803e3d6000fd5b505050505050565b600080821561290357600f546040516001600160a01b03909116904790600081818185875af1925050503d80600081146128c4576040519150601f19603f3d011682016040523d82523d6000602084013e6128c9565b606091505b5050600e54909150600160a01b900460ff166128e9576128e98585610ecf565b601280549060006128f9836142ae565b9190505550611942565b600c546040516323b872dd60e01b8152336004820152306024820152670de0b6b3a764000060448201526001600160a01b03909116906323b872dd906064016020604051808303816000875af1158015612961573d6000803e3d6000fd5b505050506040513d601f19601f820116820180604052508101906129859190613c95565b50600c54604051632770a7eb60e21b8152306004820152670de0b6b3a764000060248201526001600160a01b0390911690639dc29fac906044016020604051808303816000875af11580156129de573d6000803e3d6000fd5b505050506040513d601f19601f82011682018060405250810190612a029190613c95565b50600195945050505050565b6000546001600160a01b031633146119095760405163118cdaa760e01b8152336004820152602401610e56565b63ffffffff8216600081815260016020908152604091829020849055815192835282018390527f238399d427b947898edb290f5ff0f9109849b1c3ba196a42e35f00c50a54b98b910161183b565b6000612a986000836000612682565b90506001600160a01b038116610e0b57604051637e27328960e01b815260048101839052602401610e56565b600080546001600160a01b038381166001600160a01b0319831681178455604051919092169283917f8be0079c531659141344cd1fd0a4f28419497f9722a3daafe3b4186f6b6457e09190a35050565b6001600160a01b038216612b4657604051630b61174360e31b81526001600160a01b0383166004820152602401610e56565b6001600160a01b038381166000818152600a6020908152604080832094871680845294825291829020805460ff191686151590811790915591519182527f17307eab39ab6107e8899845ad3d59bd9653f200f220920489ca2b5937696c31910160405180910390a3505050565b6001600160a01b0383163b1561171f57604051630a85bd0160e11b81526001600160a01b0384169063150b7a0290612bf59088908890879087906004016146c6565b6020604051808303816000875af1925050508015612c30575060408051601f3d908101601f19168201909252612c2d918101906146f9565b60015b612c99573d808015612c5e576040519150601f19603f3d011682016040523d82523d6000602084013e612c63565b606091505b508051600003612c9157604051633250574960e11b81526001600160a01b0385166004820152602401610e56565b805181602001fd5b6001600160e01b03198116630a85bd0160e11b1461286657604051633250574960e11b81526001600160a01b0385166004820152602401610e56565b6001600160a01b038216612cff57604051633250574960e11b815260006004820152602401610e56565b6000612d0d83836000612682565b90506001600160a01b03811615610fb8576040516339e3563760e11b815260006004820152602401610e56565b60005b8151811015612e1157612d6c828281518110612d5b57612d5b6143f6565b602002602001015160400151612e41565b818181518110612d7e57612d7e6143f6565b60200260200101516040015160036000848481518110612da057612da06143f6565b60200260200101516000015163ffffffff1663ffffffff1681526020019081526020016000206000848481518110612dda57612dda6143f6565b60200260200101516020015161ffff1661ffff1681526020019081526020016000209081612e089190614716565b50600101612d3d565b507fbe4864a8e820971c0247f5992e2da559595f7bf076a21cb5928d443d2a13b674816040516118a491906147d5565b600281015161ffff8116600314610e0b5781604051639a6d49cd60e01b8152600401610e5691906134c2565b60408051808201909152600080825260208201527f00000000000000000000000000000000000000000000000000000000000000006001600160a01b031663ddc28c586040518060a001604052808863ffffffff168152602001612ed08961223d565b8152602001878152602001868152602001851515815250306040518363ffffffff1660e01b8152600401612f059291906145d3565b6040805180830381865afa158015612f21573d6000803e3d6000fd5b505050506040513d601f19601f820116820180604052508101906120319190614860565b8080612f5957506001600160a01b03821615155b1561301b576000612f69846121f7565b90506001600160a01b03831615801590612f955750826001600160a01b0316816001600160a01b031614155b8015612fa85750612fa68184612155565b155b15612fd15760405163a9fbf51f60e01b81526001600160a01b0384166004820152602401610e56565b81156130195783856001600160a01b0316826001600160a01b03167f8c5be1e5ebec7d5bd14f71427d1e84f3dd0314c0f7b2291e5b200ac8c7c3b92560405160405180910390a45b505b5050600090815260096020526040902080546001600160a01b0319166001600160a01b0392909216919091179055565b600061305a6020828486614390565b611a829161487c565b600061305a604060208486614390565b610fb88383612cd5565b606061308c8260408186614390565b8080601f016020809104026020016040519081016040528093929190818152602001838380828437600092019190915250929695505050505050565b60608383836040516020016130df9392919061489a565b60405160208183030381529060405290509392505050565b805160609015158061312b576040805160208101879052908101859052606001604051602081830303815290604052613152565b8484338560405160200161314294939291906148e4565b6040516020818303038152906040525b9150935093915050565b6000813414613180576040516304fb820960e51b8152346004820152602401610e56565b5090565b60007f00000000000000000000000000000000000000000000000000000000000000006001600160a01b031663e4fe1d946040518163ffffffff1660e01b8152600401602060405180830381865afa1580156131e4573d6000803e3d6000fd5b505050506040513d601f19601f820116820180604052508101906132089190614918565b90506001600160a01b038116613231576040516329b99a9560e11b815260040160405180910390fd5b610e0b6001600160a01b038216337f0000000000000000000000000000000000000000000000000000000000000000856132ca565b613271838383613324565b610fb8576001600160a01b03831661329f57604051637e27328960e01b815260048101829052602401610e56565b60405163177e802f60e01b81526001600160a01b038316600482015260248101829052604401610e56565b604080516001600160a01b0385811660248301528416604482015260648082018490528251808303909101815260849091019091526020810180516001600160e01b03166323b872dd60e01b1790526110fb908590613387565b60006001600160a01b038316158015906119425750826001600160a01b0316846001600160a01b0316148061335e575061335e8484612155565b806119425750506000908152600960205260409020546001600160a01b03908116911614919050565b600080602060008451602086016000885af1806133aa576040513d6000823e3d81fd5b50506000513d915081156133c25780600114156133cf565b6001600160a01b0384163b155b156110fb57604051635274afe760e01b81526001600160a01b0385166004820152602401610e56565b60405180606001604052806000801916815260200160006001600160401b0316815260200161343a604051806040016040528060008152602001600081525090565b905290565b6001600160e01b0319811681146121be57600080fd5b60006020828403121561346757600080fd5b8135611a828161343f565b60005b8381101561348d578181015183820152602001613475565b50506000910152565b600081518084526134ae816020860160208601613472565b601f01601f19169290920160200192915050565b602081526000611a826020830184613496565b6000602082840312156134e757600080fd5b5035919050565b6001600160a01b03811681146121be57600080fd5b6000806040838503121561351657600080fd5b8235613521816134ee565b946020939093013593505050565b60006060828403121561354157600080fd5b50919050565b60008083601f84011261355957600080fd5b5081356001600160401b0381111561357057600080fd5b60208301915083602082850101111561358857600080fd5b9250929050565b600080600080600080600060e0888a0312156135aa57600080fd5b6135b4898961352f565b96506060880135955060808801356001600160401b03808211156135d757600080fd5b6135e38b838c01613547565b909750955060a08a013591506135f8826134ee565b90935060c0890135908082111561360e57600080fd5b5061361b8a828b01613547565b989b979a50959850939692959293505050565b600060c0828403121561354157600080fd5b6000806000838503608081121561365657600080fd5b84356001600160401b0381111561366c57600080fd5b6136788782880161362e565b9450506040601f198201121561368d57600080fd5b5060208401915060608401356136a2816134ee565b809150509250925092565b6000608082019050825182526001600160401b03602084015116602083015260408301516136e8604084018280518252602090810151910152565b5092915050565b60008060006060848603121561370457600080fd5b833561370f816134ee565b9250602084013561371f816134ee565b929592945050506040919091013590565b6000806040838503121561374357600080fd5b50508035926020909101359150565b803563ffffffff8116811461376657600080fd5b919050565b6000806040838503121561377e57600080fd5b61352183613752565b60006020828403121561379957600080fd5b8135611a82816134ee565b600080602083850312156137b757600080fd5b82356001600160401b038111156137cd57600080fd5b6137d985828601613547565b90969095509350505050565b803561ffff8116811461376657600080fd5b6000806040838503121561380a57600080fd5b61381383613752565b9150613821602084016137e5565b90509250929050565b60008060008060a0858703121561384057600080fd5b61384a868661352f565b935060608501356001600160401b0381111561386557600080fd5b61387187828801613547565b9094509250506080850135613885816134ee565b939692955090935050565b80151581146121be57600080fd5b600080604083850312156138b157600080fd5b82356138bc816134ee565b915060208301356138cc81613890565b809150509250929050565b634e487b7160e01b600052604160045260246000fd5b604080519081016001600160401b038111828210171561390f5761390f6138d7565b60405290565b60405161010081016001600160401b038111828210171561390f5761390f6138d7565b604051606081016001600160401b038111828210171561390f5761390f6138d7565b604051601f8201601f191681016001600160401b0381118282101715613982576139826138d7565b604052919050565b60006001600160401b038211156139a3576139a36138d7565b50601f01601f191660200190565b600082601f8301126139c257600080fd5b81356139d56139d08261398a565b61395a565b8181528460208386010111156139ea57600080fd5b816020850160208301376000918101602001919091529392505050565b60008060008060808587031215613a1d57600080fd5b8435613a28816134ee565b93506020850135613a38816134ee565b92506040850135915060608501356001600160401b03811115613a5a57600080fd5b613a66878288016139b1565b91505092959194509250565b600080600060408486031215613a8757600080fd5b8335613a9281613890565b925060208401356001600160401b03811115613aad57600080fd5b613ab986828701613547565b9497909650939450505050565b60008083601f840112613ad857600080fd5b5081356001600160401b03811115613aef57600080fd5b6020830191508360208260051b850101111561358857600080fd5b60008060208385031215613b1d57600080fd5b82356001600160401b03811115613b3357600080fd5b6137d985828601613ac6565b600060208284031215613b5157600080fd5b611a8282613752565b60008060008060608587031215613b7057600080fd5b613b7985613752565b9350613b87602086016137e5565b925060408501356001600160401b03811115613ba257600080fd5b613bae87828801613547565b95989497509550505050565b60008060408385031215613bcd57600080fd5b82356001600160401b03811115613be357600080fd5b613bef8582860161362e565b92505060208301356138cc81613890565b815181526020808301519082015260408101610d3f565b60008060408385031215613c2a57600080fd5b8235613c35816134ee565b915060208301356138cc816134ee565b600060608284031215613c5757600080fd5b611a82838361352f565b600181811c90821680613c7557607f821691505b60208210810361354157634e487b7160e01b600052602260045260246000fd5b600060208284031215613ca757600080fd5b8151611a8281613890565b600060408284031215613cc457600080fd5b613ccc6138ed565b82358152602083013560208201528091505092915050565b634e487b7160e01b600052601160045260246000fd5b600181815b80851115613d35578160001904821115613d1b57613d1b613ce4565b80851615613d2857918102915b93841c9390800290613cff565b509250929050565b600082613d4c57506001610d3f565b81613d5957506000610d3f565b8160018114613d6f5760028114613d7957613d95565b6001915050610d3f565b60ff841115613d8a57613d8a613ce4565b50506001821b610d3f565b5060208310610133831016604e8410600b8410161715613db8575081810a610d3f565b613dc28383613cfa565b8060001904821115613dd657613dd6613ce4565b029392505050565b6000611a8260ff841683613d3d565b8082028115828204841417610d3f57610d3f613ce4565b80820180821115610d3f57610d3f613ce4565b60006001600160401b03821115613e3057613e306138d7565b5060051b60200190565b6000613e486139d08461398a565b9050828152838383011115613e5c57600080fd5b611a82836020830184613472565b600082601f830112613e7b57600080fd5b611a8283835160208501613e3a565b600082601f830112613e9b57600080fd5b81516020613eab6139d083613e17565b82815260059290921b84018101918181019086841115613eca57600080fd5b8286015b84811015613f095780516001600160401b03811115613eed5760008081fd5b613efb8986838b0101613e6a565b845250918301918301613ece565b509695505050505050565b8051613766816134ee565b805160ff8116811461376657600080fd5b600060208284031215613f4257600080fd5b81516001600160401b0380821115613f5957600080fd5b908301906101008286031215613f6e57600080fd5b613f76613915565b8251815260208301516020820152604083015182811115613f9657600080fd5b613fa287828601613e8a565b604083015250613fb460608401613f14565b6060820152608083015182811115613fcb57600080fd5b613fd787828601613e6a565b60808301525060a083015182811115613fef57600080fd5b613ffb87828601613e6a565b60a08301525061400d60c08401613f1f565b60c082015261401e60e08401613f14565b60e082015295945050505050565b60006020828403121561403e57600080fd5b5051919050565b60008161405457614054613ce4565b506000190190565b81835281816020850137506000828201602090810191909152601f909101601f19169091010190565b60408152600061409960408301858761405c565b90508215156020830152949350505050565b6000806000606084860312156140c057600080fd5b8351925060208401516140d2816134ee565b60408501519092506136a281613890565b601f821115610fb8576000816000526020600020601f850160051c8101602086101561410c5750805b601f850160051c820191505b8181101561286657828155600101614118565b6001600160401b03831115614142576141426138d7565b614156836141508354613c61565b836140e3565b6000601f84116001811461418a57600085156141725750838201355b600019600387901b1c1916600186901b17835561171f565b600083815260209020601f19861690835b828110156141bb578685013582556020948501946001909201910161419b565b50868210156141d85760001960f88860031b161c19848701351681555b505060018560011b0183555050505050565b60006020808352600084546141fe81613c61565b8060208701526040600180841660008114614220576001811461423c5761426c565b60ff19851660408a0152604084151560051b8a0101955061426c565b89600052602060002060005b858110156142635781548b8201860152908301908801614248565b8a016040019650505b509398975050505050505050565b60006020828403121561428c57600080fd5b81516001600160401b038111156142a257600080fd5b61194284828501613e6a565b6000600182016142c0576142c0613ce4565b5060010190565b60006142d56139d084613e17565b80848252602080830192508560051b8501368111156142f357600080fd5b855b818110156143845780356001600160401b03808211156143155760008081fd5b81890191506060823603121561432b5760008081fd5b614333613938565b61433c83613752565b81526143498684016137e5565b86820152604080840135838111156143615760008081fd5b61436d368287016139b1565b9183019190915250875250509382019382016142f5565b50919695505050505050565b600080858511156143a057600080fd5b838611156143ad57600080fd5b5050820193919092039150565b600084516143cc818460208901613472565b8201838582376000930192835250909392505050565b60208152600061194260208301848661405c565b634e487b7160e01b600052603260045260246000fd5b6000823561013e1983360301811261442357600080fd5b9190910192915050565b6000808335601e1984360301811261444457600080fd5b8301803591506001600160401b0382111561445e57600080fd5b60200191503681900382131561358857600080fd5b6001600160401b03811681146121be57600080fd5b63ffffffff61449689613752565b16815260208801356020820152600060408901356144b381614473565b6001600160401b03811660408401525087606083015260e060808301526144de60e08301878961405c565b6001600160a01b03861660a084015282810360c084015261450081858761405c565b9a9950505050505050505050565b60006020828403121561452057600080fd5b81516001600160401b0381111561453657600080fd5b8201601f8101841361454757600080fd5b61194284825160208401613e3a565b60006020828403121561456857600080fd5b8135611a8281614473565b60018060a01b038516815283602082015261ffff831660408201526080606082015260006145a46080830184613496565b9695505050505050565b6040815260006145c16040830185613496565b82810360208401526120318185613496565b6040815263ffffffff8351166040820152602083015160608201526000604084015160a0608084015261460960e0840182613496565b90506060850151603f198483030160a08501526146268282613496565b60809690960151151560c08501525050506001600160a01b039190911660209091015290565b60006040828403121561465e57600080fd5b6146666138ed565b9050815181526020820151602082015292915050565b60006080828403121561468e57600080fd5b614696613938565b8251815260208301516146a881614473565b60208201526146ba846040850161464c565b60408201529392505050565b6001600160a01b03858116825284166020820152604081018390526080606082018190526000906145a490830184613496565b60006020828403121561470b57600080fd5b8151611a828161343f565b81516001600160401b0381111561472f5761472f6138d7565b6147438161473d8454613c61565b846140e3565b602080601f83116001811461477857600084156147605750858301515b600019600386901b1c1916600185901b178555612866565b600085815260208120601f198616915b828110156147a757888601518255948401946001909101908401614788565b50858210156147c55787850151600019600388901b60f8161c191681555b5050505050600190811b01905550565b600060208083018184528085518083526040925060408601915060408160051b87010184880160005b8381101561485257888303603f190185528151805163ffffffff1684528781015161ffff1688850152860151606087850181905261483e81860183613496565b9689019694505050908601906001016147fe565b509098975050505050505050565b60006040828403121561487257600080fd5b611a82838361464c565b80356020831015610d3f57600019602084900360031b1b1692915050565b60c084901b6001600160c01b031916815260e083901b6001600160e01b031916600882015281516000906148d581600c850160208701613472565b91909101600c01949350505050565b84815283602082015282604082015260008251614908816060850160208701613472565b9190910160600195945050505050565b60006020828403121561492a57600080fd5b8151611a82816134ee56fea2646970667358221220b89bb66812bc6da8dc47fd73fe9c17c637d50a2ef8b46d18de249dc8c8fcddc264736f6c63430008160033",
  "devdoc": {
    "errors": {
      "ERC721IncorrectOwner(address,uint256,address)": [
        {
          "details": "Indicates an error related to the ownership over a particular token. Used in transfers.",
          "params": {
            "owner": "Address of the current owner of a token.",
            "sender": "Address whose tokens are being transferred.",
            "tokenId": "Identifier number of a token."
          }
        }
      ],
      "ERC721InsufficientApproval(address,uint256)": [
        {
          "details": "Indicates a failure with the `operator`s approval. Used in transfers.",
          "params": {
            "operator": "Address that may be allowed to operate on tokens without being their owner.",
            "tokenId": "Identifier number of a token."
          }
        }
      ],
      "ERC721InvalidApprover(address)": [
        {
          "details": "Indicates a failure with the `approver` of a token to be approved. Used in approvals.",
          "params": {
            "approver": "Address initiating an approval operation."
          }
        }
      ],
      "ERC721InvalidOperator(address)": [
        {
          "details": "Indicates a failure with the `operator` to be approved. Used in approvals.",
          "params": {
            "operator": "Address that may be allowed to operate on tokens without being their owner."
          }
        }
      ],
      "ERC721InvalidOwner(address)": [
        {
          "details": "Indicates that an address can't be an owner. For example, `address(0)` is a forbidden owner in ERC-20. Used in balance queries.",
          "params": {
            "owner": "Address of the current owner of a token."
          }
        }
      ],
      "ERC721InvalidReceiver(address)": [
        {
          "details": "Indicates a failure with the token `receiver`. Used in transfers.",
          "params": {
            "receiver": "Address to which tokens are being transferred."
          }
        }
      ],
      "ERC721InvalidSender(address)": [
        {
          "details": "Indicates a failure with the token `sender`. Used in transfers.",
          "params": {
            "sender": "Address whose tokens are being transferred."
          }
        }
      ],
      "ERC721NonexistentToken(uint256)": [
        {
          "details": "Indicates a `tokenId` whose `owner` is the zero address.",
          "params": {
            "tokenId": "Identifier number of a token."
          }
        }
      ],
      "OwnableInvalidOwner(address)": [
        {
          "details": "The owner is not a valid owner account. (eg. `address(0)`)"
        }
      ],
      "OwnableUnauthorizedAccount(address)": [
        {
          "details": "The caller account is not authorized to perform an operation."
        }
      ],
      "SafeERC20FailedOperation(address)": [
        {
          "details": "An operation with an ERC-20 token failed."
        }
      ]
    },
    "events": {
      "Approval(address,address,uint256)": {
        "details": "Emitted when `owner` enables `approved` to manage the `tokenId` token."
      },
      "ApprovalForAll(address,address,bool)": {
        "details": "Emitted when `owner` enables or disables (`approved`) `operator` to manage all of its assets."
      },
      "PreCrimeSet(address)": {
        "details": "Emitted when the preCrime contract address is set.",
        "params": {
          "preCrimeAddress": "The address of the preCrime contract."
        }
      },
      "Transfer(address,address,uint256)": {
        "details": "Emitted when `tokenId` token is transferred from `from` to `to`."
      }
    },
    "kind": "dev",
    "methods": {
      "allowInitializePath((uint32,bytes32,uint64))": {
        "details": "This indicates to the endpoint that the OApp has enabled msgs for this particular path to be received.This defaults to assuming if a peer has been set, its initialized. Can be overridden by the OApp if there is other logic to determine this.",
        "params": {
          "origin": "The origin information containing the source endpoint and sender address."
        },
        "returns": {
          "_0": "Whether the path has been initialized."
        }
      },
      "approvalRequired()": {
        "details": "In the case of ONFT where the contract IS the token, approval is NOT required.",
        "returns": {
          "_0": "requiresApproval Needs approval of the underlying token implementation."
        }
      },
      "approve(address,uint256)": {
        "details": "See {IERC721-approve}."
      },
      "balanceOf(address)": {
        "details": "See {IERC721-balanceOf}."
      },
      "combineOptions(uint32,uint16,bytes)": {
        "details": "If there is an enforced lzReceive option: - {gasLimit: 200k, msg.value: 1 ether} AND a caller supplies a lzReceive option: {gasLimit: 100k, msg.value: 0.5 ether} - The resulting options will be {gasLimit: 300k, msg.value: 1.5 ether} when the message is executed on the remote lzReceive() function.This presence of duplicated options is handled off-chain in the verifier/executor.",
        "params": {
          "_eid": "The endpoint ID.",
          "_extraOptions": "Additional options passed by the caller.",
          "_msgType": "The OAPP message type."
        },
        "returns": {
          "_0": "options The combination of caller specified options AND enforced options."
        }
      },
      "getApproved(uint256)": {
        "details": "See {IERC721-getApproved}."
      },
      "isApprovedForAll(address,address)": {
        "details": "See {IERC721-isApprovedForAll}."
      },
      "isComposeMsgSender((uint32,bytes32,uint64),bytes,address)": {
        "details": "_origin The origin information containing the source endpoint and sender address.  - srcEid: The source chain endpoint ID.  - sender: The sender address on the src chain.  - nonce: The nonce of the message._message The lzReceive payload.Applications can optionally choose to implement separate composeMsg senders that are NOT the bridging layer.The default sender IS the OAppReceiver implementer.",
        "params": {
          "_sender": "The sender address."
        },
        "returns": {
          "_0": "isSender Is a valid sender."
        }
      },
      "isPeer(uint32,bytes32)": {
        "details": "Check if the peer is considered 'trusted' by the OApp.Enables OAppPreCrimeSimulator to check whether a potential Inbound Packet is from a trusted source.",
        "params": {
          "_eid": "The endpoint ID to check.",
          "_peer": "The peer to check."
        },
        "returns": {
          "_0": "Whether the peer passed is considered 'trusted' by the OApp."
        }
      },
      "lzReceive((uint32,bytes32,uint64),bytes32,bytes,address,bytes)": {
        "details": "Entry point for receiving messages or packets from the endpoint.Entry point for receiving msg/packet from the LayerZero endpoint.",
        "params": {
          "_executor": "The address of the executor for the received message.",
          "_extraData": "Additional arbitrary data provided by the corresponding executor.",
          "_guid": "The unique identifier for the received LayerZero message.",
          "_message": "The payload of the received message.",
          "_origin": "The origin information containing the source endpoint and sender address.  - srcEid: The source chain endpoint ID.  - sender: The sender address on the src chain.  - nonce: The nonce of the message."
        }
      },
      "lzReceiveAndRevert(((uint32,bytes32,uint64),uint32,address,bytes32,uint256,address,bytes,bytes)[])": {
        "details": "Interface for pre-crime simulations. Always reverts at the end with the simulation results.WARNING: MUST revert at the end with the simulation results.Gives the preCrime implementation the ability to mock sending packets to the lzReceive function, WITHOUT actually executing them.",
        "params": {
          "_packets": "An array of InboundPacket objects representing received packets to be delivered."
        }
      },
      "lzReceiveSimulate((uint32,bytes32,uint64),bytes32,bytes,address,bytes)": {
        "details": "Is effectively an internal function because msg.sender must be address(this). Allows resetting the call stack for 'internal' calls.",
        "params": {
          "_executor": "The executor address for the packet.",
          "_extraData": "Additional data for the packet.",
          "_guid": "The unique identifier of the packet.",
          "_message": "The message payload of the packet.",
          "_origin": "The origin information containing the source endpoint and sender address.  - srcEid: The source chain endpoint ID.  - sender: The sender address on the src chain.  - nonce: The nonce of the message."
        }
      },
      "name()": {
        "details": "See {IERC721Metadata-name}."
      },
      "nextNonce(uint32,bytes32)": {
        "details": "_srcEid The source endpoint ID._sender The sender address.The path nonce starts from 1. If 0 is returned it means that there is NO nonce ordered enforcement.Is required by the off-chain executor to determine the OApp expects msg execution is ordered.This is also enforced by the OApp.By default this is NOT enabled. ie. nextNonce is hardcoded to return 0.",
        "returns": {
          "nonce": "The next nonce."
        }
      },
      "oApp()": {
        "details": "Retrieves the address of the OApp contract.The simulator contract is the base contract for the OApp by default.If the simulator is a separate contract, override this function.",
        "returns": {
          "_0": "The address of the OApp contract."
        }
      },
      "oAppVersion()": {
        "returns": {
          "receiverVersion": "The version of the OAppReceiver.sol implementation.",
          "senderVersion": "The version of the OAppSender.sol implementation."
        }
      },
      "onftVersion()": {
        "details": "version: Indicates a cross-chain compatible msg encoding with other ONFTs.If a new feature is added to the ONFT cross-chain msg encoding, the version will be incremented.ie. localONFT version(x,1) CAN send messages to remoteONFT version(x,1)",
        "returns": {
          "interfaceId": "The interface ID (0x23e18da6).",
          "version": "The version."
        }
      },
      "owner()": {
        "details": "Returns the address of the current owner."
      },
      "ownerOf(uint256)": {
        "details": "See {IERC721-ownerOf}."
      },
      "quoteSend((uint32,bytes32,uint256,bytes,bytes,bytes),bool)": {
        "details": "MessagingFee: LayerZero msg fee  - nativeFee: The native fee.  - lzTokenFee: The lzToken fee.",
        "params": {
          "_payInLzToken": "Flag indicating whether the caller is paying in the LZ token.",
          "_sendParam": "The parameters for the send() operation."
        },
        "returns": {
          "msgFee": "fee The calculated LayerZero messaging fee from the send() operation."
        }
      },
      "renounceOwnership()": {
        "details": "Leaves the contract without owner. It will not be possible to call `onlyOwner` functions. Can only be called by the current owner. NOTE: Renouncing ownership will leave the contract without an owner, thereby disabling any functionality that is only available to the owner."
      },
      "safeTransferFrom(address,address,uint256)": {
        "details": "See {IERC721-safeTransferFrom}."
      },
      "safeTransferFrom(address,address,uint256,bytes)": {
        "details": "See {IERC721-safeTransferFrom}."
      },
      "send((uint32,bytes32,uint256,bytes,bytes,bytes),(uint256,uint256),address)": {
        "details": "MessagingReceipt: LayerZero msg receipt  - guid: The unique identifier for the sent message.  - nonce: The nonce of the sent message.  - fee: The LayerZero fee incurred for the message.",
        "params": {
          "_fee": "The fee information supplied by the caller.      - nativeFee: The native fee.      - lzTokenFee: The lzToken fee.",
          "_refundAddress": "The address to receive any excess funds from fees etc. on the src.",
          "_sendParam": "The parameters for the send operation."
        },
        "returns": {
          "msgReceipt": "receipt The LayerZero messaging receipt from the send() operation."
        }
      },
      "setApprovalForAll(address,bool)": {
        "details": "See {IERC721-setApprovalForAll}."
      },
      "setDelegate(address)": {
        "details": "Only the owner/admin of the OApp can call this function.Provides the ability for a delegate to set configs, on behalf of the OApp, directly on the Endpoint contract.",
        "params": {
          "_delegate": "The address of the delegate to be set."
        }
      },
      "setEnforcedOptions((uint32,uint16,bytes)[])": {
        "details": "Sets the enforced options for specific endpoint and message type combinations.Only the owner/admin of the OApp can call this function.Provides a way for the OApp to enforce things like paying for PreCrime, AND/OR minimum dst lzReceive gas amounts etc.These enforced options can vary as the potential options/execution on the remote may differ as per the msgType. eg. Amount of lzReceive() gas necessary to deliver a lzCompose() message adds overhead you dont want to pay if you are only making a standard LayerZero message ie. lzReceive() WITHOUT sendCompose().",
        "params": {
          "_enforcedOptions": "An array of EnforcedOptionParam structures specifying enforced options."
        }
      },
      "setMsgInspector(address)": {
        "details": "This is an optional contract that can be used to inspect both 'message' and 'options'.Set it to address(0) to disable it, or set it to a contract address to enable it.",
        "params": {
          "_msgInspector": "The address of the message inspector."
        }
      },
      "setPeer(uint32,bytes32)": {
        "details": "Only the owner/admin of the OApp can call this function.Indicates that the peer is trusted to send LayerZero messages to this OApp.Set this to bytes32(0) to remove the peer address.Peer is a bytes32 to accommodate non-evm chains.",
        "params": {
          "_eid": "The endpoint ID.",
          "_peer": "The address of the peer to be associated with the corresponding endpoint."
        }
      },
      "setPreCrime(address)": {
        "details": "Sets the preCrime contract address.",
        "params": {
          "_preCrime": "The address of the preCrime contract."
        }
      },
      "supportsInterface(bytes4)": {
        "details": "See {IERC165-supportsInterface}."
      },
      "symbol()": {
        "details": "See {IERC721Metadata-symbol}."
      },
      "tokenURI(uint256)": {
        "details": "See {IERC721Metadata-tokenURI}."
      },
      "transferFrom(address,address,uint256)": {
        "details": "See {IERC721-transferFrom}."
      },
      "transferOwnership(address)": {
        "details": "Transfers ownership of the contract to a new account (`newOwner`). Can only be called by the current owner."
      }
    },
    "version": 1
  },
  "userdoc": {
    "kind": "user",
    "methods": {
      "allowInitializePath((uint32,bytes32,uint64))": {
        "notice": "Checks if the path initialization is allowed based on the provided origin."
      },
      "approvalRequired()": {
        "notice": "Indicates whether the ONFT721 contract requires approval of the 'token()' to send."
      },
      "combineOptions(uint32,uint16,bytes)": {
        "notice": "Combines options for a given endpoint and message type."
      },
      "endpoint()": {
        "notice": "Retrieves the LayerZero endpoint associated with the OApp."
      },
      "isComposeMsgSender((uint32,bytes32,uint64),bytes,address)": {
        "notice": "Indicates whether an address is an approved composeMsg sender to the Endpoint."
      },
      "mint(bool,bytes)": {
        "notice": "PUBLIC FUNCTIONS ///"
      },
      "nextNonce(uint32,bytes32)": {
        "notice": "Retrieves the next nonce for a given source endpoint and sender address."
      },
      "oAppVersion()": {
        "notice": "Retrieves the OApp version information."
      },
      "onftVersion()": {
        "notice": "Retrieves interfaceID and the version of the ONFT."
      },
      "peers(uint32)": {
        "notice": "Retrieves the peer (OApp) associated with a corresponding endpoint."
      },
      "quoteSend((uint32,bytes32,uint256,bytes,bytes,bytes),bool)": {
        "notice": "Provides a quote for the send() operation."
      },
      "send((uint32,bytes32,uint256,bytes,bytes,bytes),(uint256,uint256),address)": {
        "notice": "Executes the send() operation."
      },
      "setDelegate(address)": {
        "notice": "Sets the delegate address for the OApp."
      },
      "setMsgInspector(address)": {
        "notice": "Sets the message inspector address for the OFT."
      },
      "setPeer(uint32,bytes32)": {
        "notice": "Sets the peer address (OApp instance) for a corresponding endpoint."
      },
      "setupFungibleMood(address)": {
        "notice": "CORE CONTRACTS ///"
      },
      "token()": {
        "notice": "Retrieves the address of the underlying ERC721 implementation (ie. this contract)."
      }
    },
    "version": 1
  },
  "storageLayout": {
    "storage": [
      {
        "astId": 3534,
        "contract": "contracts/NonFungibleMood.sol:NonFungibleMood",
        "label": "_owner",
        "offset": 0,
        "slot": "0",
        "type": "t_address"
      },
      {
        "astId": 1390,
        "contract": "contracts/NonFungibleMood.sol:NonFungibleMood",
        "label": "peers",
        "offset": 0,
        "slot": "1",
        "type": "t_mapping(t_uint32,t_bytes32)"
      },
      {
        "astId": 2166,
        "contract": "contracts/NonFungibleMood.sol:NonFungibleMood",
        "label": "preCrime",
        "offset": 0,
        "slot": "2",
        "type": "t_address"
      },
      {
        "astId": 2006,
        "contract": "contracts/NonFungibleMood.sol:NonFungibleMood",
        "label": "enforcedOptions",
        "offset": 0,
        "slot": "3",
        "type": "t_mapping(t_uint32,t_mapping(t_uint16,t_bytes_storage))"
      },
      {
        "astId": 2929,
        "contract": "contracts/NonFungibleMood.sol:NonFungibleMood",
        "label": "msgInspector",
        "offset": 0,
        "slot": "4",
        "type": "t_address"
      },
      {
        "astId": 4422,
        "contract": "contracts/NonFungibleMood.sol:NonFungibleMood",
        "label": "_name",
        "offset": 0,
        "slot": "5",
        "type": "t_string_storage"
      },
      {
        "astId": 4424,
        "contract": "contracts/NonFungibleMood.sol:NonFungibleMood",
        "label": "_symbol",
        "offset": 0,
        "slot": "6",
        "type": "t_string_storage"
      },
      {
        "astId": 4428,
        "contract": "contracts/NonFungibleMood.sol:NonFungibleMood",
        "label": "_owners",
        "offset": 0,
        "slot": "7",
        "type": "t_mapping(t_uint256,t_address)"
      },
      {
        "astId": 4432,
        "contract": "contracts/NonFungibleMood.sol:NonFungibleMood",
        "label": "_balances",
        "offset": 0,
        "slot": "8",
        "type": "t_mapping(t_address,t_uint256)"
      },
      {
        "astId": 4436,
        "contract": "contracts/NonFungibleMood.sol:NonFungibleMood",
        "label": "_tokenApprovals",
        "offset": 0,
        "slot": "9",
        "type": "t_mapping(t_uint256,t_address)"
      },
      {
        "astId": 4442,
        "contract": "contracts/NonFungibleMood.sol:NonFungibleMood",
        "label": "_operatorApprovals",
        "offset": 0,
        "slot": "10",
        "type": "t_mapping(t_address,t_mapping(t_address,t_bool))"
      },
      {
        "astId": 2766,
        "contract": "contracts/NonFungibleMood.sol:NonFungibleMood",
        "label": "baseTokenURI",
        "offset": 0,
        "slot": "11",
        "type": "t_string_storage"
      },
      {
        "astId": 9842,
        "contract": "contracts/NonFungibleMood.sol:NonFungibleMood",
        "label": "FUNGIBLEMOOD",
        "offset": 0,
        "slot": "12",
        "type": "t_contract(IFungibleMood)10457"
      },
      {
        "astId": 9845,
        "contract": "contracts/NonFungibleMood.sol:NonFungibleMood",
        "label": "VISUALENGINE",
        "offset": 0,
        "slot": "13",
        "type": "t_contract(IVisualEngine)10615"
      },
      {
        "astId": 9848,
        "contract": "contracts/NonFungibleMood.sol:NonFungibleMood",
        "label": "MOODBANK",
        "offset": 0,
        "slot": "14",
        "type": "t_contract(IMoodBank)10601"
      },
      {
        "astId": 9853,
        "contract": "contracts/NonFungibleMood.sol:NonFungibleMood",
        "label": "migrating",
        "offset": 20,
        "slot": "14",
        "type": "t_bool"
      },
      {
        "astId": 9856,
        "contract": "contracts/NonFungibleMood.sol:NonFungibleMood",
        "label": "connected",
        "offset": 21,
        "slot": "14",
        "type": "t_bool"
      },
      {
        "astId": 9858,
        "contract": "contracts/NonFungibleMood.sol:NonFungibleMood",
        "label": "treasury",
        "offset": 0,
        "slot": "15",
        "type": "t_address"
      },
      {
        "astId": 9861,
        "contract": "contracts/NonFungibleMood.sol:NonFungibleMood",
        "label": "tokenIds",
        "offset": 0,
        "slot": "16",
        "type": "t_uint256"
      },
      {
        "astId": 9864,
        "contract": "contracts/NonFungibleMood.sol:NonFungibleMood",
        "label": "totalSupply",
        "offset": 0,
        "slot": "17",
        "type": "t_uint256"
      },
      {
        "astId": 9867,
        "contract": "contracts/NonFungibleMood.sol:NonFungibleMood",
        "label": "pricedTokens",
        "offset": 0,
        "slot": "18",
        "type": "t_uint256"
      },
      {
        "astId": 9871,
        "contract": "contracts/NonFungibleMood.sol:NonFungibleMood",
        "label": "claimed",
        "offset": 0,
        "slot": "19",
        "type": "t_mapping(t_uint256,t_bool)"
      },
      {
        "astId": 9875,
        "contract": "contracts/NonFungibleMood.sol:NonFungibleMood",
        "label": "moodIds",
        "offset": 0,
        "slot": "20",
        "type": "t_mapping(t_uint256,t_uint256)"
      }
    ],
    "types": {
      "t_address": {
        "encoding": "inplace",
        "label": "address",
        "numberOfBytes": "20"
      },
      "t_bool": {
        "encoding": "inplace",
        "label": "bool",
        "numberOfBytes": "1"
      },
      "t_bytes32": {
        "encoding": "inplace",
        "label": "bytes32",
        "numberOfBytes": "32"
      },
      "t_bytes_storage": {
        "encoding": "bytes",
        "label": "bytes",
        "numberOfBytes": "32"
      },
      "t_contract(IFungibleMood)10457": {
        "encoding": "inplace",
        "label": "contract IFungibleMood",
        "numberOfBytes": "20"
      },
      "t_contract(IMoodBank)10601": {
        "encoding": "inplace",
        "label": "contract IMoodBank",
        "numberOfBytes": "20"
      },
      "t_contract(IVisualEngine)10615": {
        "encoding": "inplace",
        "label": "contract IVisualEngine",
        "numberOfBytes": "20"
      },
      "t_mapping(t_address,t_bool)": {
        "encoding": "mapping",
        "key": "t_address",
        "label": "mapping(address => bool)",
        "numberOfBytes": "32",
        "value": "t_bool"
      },
      "t_mapping(t_address,t_mapping(t_address,t_bool))": {
        "encoding": "mapping",
        "key": "t_address",
        "label": "mapping(address => mapping(address => bool))",
        "numberOfBytes": "32",
        "value": "t_mapping(t_address,t_bool)"
      },
      "t_mapping(t_address,t_uint256)": {
        "encoding": "mapping",
        "key": "t_address",
        "label": "mapping(address => uint256)",
        "numberOfBytes": "32",
        "value": "t_uint256"
      },
      "t_mapping(t_uint16,t_bytes_storage)": {
        "encoding": "mapping",
        "key": "t_uint16",
        "label": "mapping(uint16 => bytes)",
        "numberOfBytes": "32",
        "value": "t_bytes_storage"
      },
      "t_mapping(t_uint256,t_address)": {
        "encoding": "mapping",
        "key": "t_uint256",
        "label": "mapping(uint256 => address)",
        "numberOfBytes": "32",
        "value": "t_address"
      },
      "t_mapping(t_uint256,t_bool)": {
        "encoding": "mapping",
        "key": "t_uint256",
        "label": "mapping(uint256 => bool)",
        "numberOfBytes": "32",
        "value": "t_bool"
      },
      "t_mapping(t_uint256,t_uint256)": {
        "encoding": "mapping",
        "key": "t_uint256",
        "label": "mapping(uint256 => uint256)",
        "numberOfBytes": "32",
        "value": "t_uint256"
      },
      "t_mapping(t_uint32,t_bytes32)": {
        "encoding": "mapping",
        "key": "t_uint32",
        "label": "mapping(uint32 => bytes32)",
        "numberOfBytes": "32",
        "value": "t_bytes32"
      },
      "t_mapping(t_uint32,t_mapping(t_uint16,t_bytes_storage))": {
        "encoding": "mapping",
        "key": "t_uint32",
        "label": "mapping(uint32 => mapping(uint16 => bytes))",
        "numberOfBytes": "32",
        "value": "t_mapping(t_uint16,t_bytes_storage)"
      },
      "t_string_storage": {
        "encoding": "bytes",
        "label": "string",
        "numberOfBytes": "32"
      },
      "t_uint16": {
        "encoding": "inplace",
        "label": "uint16",
        "numberOfBytes": "2"
      },
      "t_uint256": {
        "encoding": "inplace",
        "label": "uint256",
        "numberOfBytes": "32"
      },
      "t_uint32": {
        "encoding": "inplace",
        "label": "uint32",
        "numberOfBytes": "4"
      }
    }
  }
}