{
  "address": "0xF874e07251001De6193c52788366108e17FdAb51",
  "abi": [
    {
      "inputs": [
        {
          "internalType": "string",
          "name": "networkName",
          "type": "string"
        }
      ],
      "stateMutability": "nonpayable",
      "type": "constructor"
    },
    {
      "inputs": [
        {
          "internalType": "address",
          "name": "owner",
          "type": "address"
        }
      ],
      "name": "OwnableInvalidOwner",
      "type": "error"
    },
    {
      "inputs": [
        {
          "internalType": "address",
          "name": "account",
          "type": "address"
        }
      ],
      "name": "OwnableUnauthorizedAccount",
      "type": "error"
    },
    {
      "anonymous": false,
      "inputs": [
        {
          "indexed": true,
          "internalType": "address",
          "name": "previousOwner",
          "type": "address"
        },
        {
          "indexed": true,
          "internalType": "address",
          "name": "newOwner",
          "type": "address"
        }
      ],
      "name": "OwnershipTransferred",
      "type": "event"
    },
    {
      "inputs": [],
      "name": "FUNGIBLEMOOD",
      "outputs": [
        {
          "internalType": "contract IERC20",
          "name": "",
          "type": "address"
        }
      ],
      "stateMutability": "view",
      "type": "function"
    },
    {
      "inputs": [],
      "name": "MOODBANK",
      "outputs": [
        {
          "internalType": "contract IMoodBank",
          "name": "",
          "type": "address"
        }
      ],
      "stateMutability": "view",
      "type": "function"
    },
    {
      "inputs": [
        {
          "internalType": "string[]",
          "name": "emojis",
          "type": "string[]"
        }
      ],
      "name": "generateEmojis",
      "outputs": [
        {
          "internalType": "string",
          "name": "",
          "type": "string"
        }
      ],
      "stateMutability": "pure",
      "type": "function"
    },
    {
      "inputs": [
        {
          "internalType": "string[]",
          "name": "emojis",
          "type": "string[]"
        },
        {
          "internalType": "string",
          "name": "bgColor",
          "type": "string"
        },
        {
          "internalType": "string",
          "name": "fontColor",
          "type": "string"
        }
      ],
      "name": "generateImage",
      "outputs": [
        {
          "internalType": "string",
          "name": "",
          "type": "string"
        }
      ],
      "stateMutability": "pure",
      "type": "function"
    },
    {
      "inputs": [
        {
          "internalType": "uint256",
          "name": "tokenId",
          "type": "uint256"
        },
        {
          "internalType": "address",
          "name": "",
          "type": "address"
        },
        {
          "internalType": "uint256",
          "name": "moodId",
          "type": "uint256"
        }
      ],
      "name": "generateMetadata",
      "outputs": [
        {
          "internalType": "string",
          "name": "",
          "type": "string"
        }
      ],
      "stateMutability": "view",
      "type": "function"
    },
    {
      "inputs": [
        {
          "internalType": "string[]",
          "name": "emojis",
          "type": "string[]"
        },
        {
          "internalType": "string",
          "name": "fontColor",
          "type": "string"
        }
      ],
      "name": "generateTextElement",
      "outputs": [
        {
          "internalType": "string",
          "name": "",
          "type": "string"
        }
      ],
      "stateMutability": "pure",
      "type": "function"
    },
    {
      "inputs": [
        {
          "internalType": "uint256",
          "name": "expansionLevel",
          "type": "uint256"
        },
        {
          "internalType": "string",
          "name": "bgColor",
          "type": "string"
        },
        {
          "internalType": "string",
          "name": "fontColor",
          "type": "string"
        }
      ],
      "name": "generateTraits",
      "outputs": [
        {
          "internalType": "string",
          "name": "traits",
          "type": "string"
        }
      ],
      "stateMutability": "pure",
      "type": "function"
    },
    {
      "inputs": [],
      "name": "getPrice",
      "outputs": [
        {
          "internalType": "address",
          "name": "",
          "type": "address"
        },
        {
          "internalType": "uint256",
          "name": "",
          "type": "uint256"
        }
      ],
      "stateMutability": "view",
      "type": "function"
    },
    {
      "inputs": [],
      "name": "network",
      "outputs": [
        {
          "internalType": "string",
          "name": "",
          "type": "string"
        }
      ],
      "stateMutability": "view",
      "type": "function"
    },
    {
      "inputs": [],
      "name": "owner",
      "outputs": [
        {
          "internalType": "address",
          "name": "",
          "type": "address"
        }
      ],
      "stateMutability": "view",
      "type": "function"
    },
    {
      "inputs": [],
      "name": "renounceOwnership",
      "outputs": [],
      "stateMutability": "nonpayable",
      "type": "function"
    },
    {
      "inputs": [
        {
          "internalType": "address",
          "name": "_fungibleMood",
          "type": "address"
        }
      ],
      "name": "setupFungibleMood",
      "outputs": [],
      "stateMutability": "nonpayable",
      "type": "function"
    },
    {
      "inputs": [
        {
          "internalType": "address",
          "name": "_moodBank",
          "type": "address"
        }
      ],
      "name": "setupMoodBank",
      "outputs": [],
      "stateMutability": "nonpayable",
      "type": "function"
    },
    {
      "inputs": [],
      "name": "theme",
      "outputs": [
        {
          "internalType": "string",
          "name": "",
          "type": "string"
        }
      ],
      "stateMutability": "view",
      "type": "function"
    },
    {
      "inputs": [
        {
          "internalType": "address",
          "name": "newOwner",
          "type": "address"
        }
      ],
      "name": "transferOwnership",
      "outputs": [],
      "stateMutability": "nonpayable",
      "type": "function"
    }
  ],
  "transactionHash": "0xf45254cb3d3bad60d824253d3b7baaf9f7375ba5ab3700c3344bea6c8aa0daf4",
  "args": [
    "amoy-testnet"
  ],
  "numDeployments": 1,
  "solcInputHash": "71851c51abe6c00383d03de1572e4892",
  "bytecode": "0x60c0604052600c60809081526b14195c9cdbdb985b1a5e995960a21b60a0526001906200002d90826200019e565b503480156200003b57600080fd5b5060405162001dbf38038062001dbf8339810160408190526200005e916200026a565b33806200008557604051631e4fbdf760e01b81526000600482015260240160405180910390fd5b6200009081620000a7565b5060026200009f82826200019e565b50506200033f565b600080546001600160a01b038381166001600160a01b0319831681178455604051919092169283917f8be0079c531659141344cd1fd0a4f28419497f9722a3daafe3b4186f6b6457e09190a35050565b634e487b7160e01b600052604160045260246000fd5b600181811c908216806200012257607f821691505b6020821081036200014357634e487b7160e01b600052602260045260246000fd5b50919050565b601f82111562000199576000816000526020600020601f850160051c81016020861015620001745750805b601f850160051c820191505b81811015620001955782815560010162000180565b5050505b505050565b81516001600160401b03811115620001ba57620001ba620000f7565b620001d281620001cb84546200010d565b8462000149565b602080601f8311600181146200020a5760008415620001f15750858301515b600019600386901b1c1916600185901b17855562000195565b600085815260208120601f198616915b828110156200023b578886015182559484019460019091019084016200021a565b50858210156200025a5787850151600019600388901b60f8161c191681555b5050505050600190811b01905550565b600060208083850312156200027e57600080fd5b82516001600160401b03808211156200029657600080fd5b818501915085601f830112620002ab57600080fd5b815181811115620002c057620002c0620000f7565b604051601f8201601f19908116603f01168101908382118183101715620002eb57620002eb620000f7565b8160405282815288868487010111156200030457600080fd5b600093505b8284101562000328578484018601518185018701529285019262000309565b600086848301015280965050505050505092915050565b611a70806200034f6000396000f3fe608060405234801561001057600080fd5b50600436106100f55760003560e01c8063715018a6116100975780639deec5e2116100665780639deec5e2146101e6578063b2276587146101f9578063f2fde38b1461020c578063f9f469b11461021f57600080fd5b8063715018a6146101995780637ada0f17146101a15780638da5cb5b146101b457806398d5fdca146101c557600080fd5b80634ee61808116100d35780634ee618081461014057806355f7554a146101535780635f9725f51461017e5780636739afca1461019157600080fd5b80631df02828146100fa57806338b37636146101185780633a44315d1461012d575b600080fd5b610102610232565b60405161010f9190610c00565b60405180910390f35b61012b610126366004610c48565b6102c0565b005b61010261013b366004610c65565b6102ea565b61012b61014e366004610c48565b61043f565b600354610166906001600160a01b031681565b6040516001600160a01b03909116815260200161010f565b61010261018c366004610e36565b610469565b610102610623565b61012b610630565b6101026101af366004610e99565b610644565b6000546001600160a01b0316610166565b600354604080516001600160a01b039092168252600060208301520161010f565b6101026101f4366004610ed5565b610711565b610102610207366004610f41565b610748565b61012b61021a366004610c48565b6107b4565b600454610166906001600160a01b031681565b6001805461023f90610f8f565b80601f016020809104026020016040519081016040528092919081815260200182805461026b90610f8f565b80156102b85780601f1061028d576101008083540402835291602001916102b8565b820191906000526020600020905b81548152906001019060200180831161029b57829003601f168201915b505050505081565b6102c86107f7565b600380546001600160a01b0319166001600160a01b0392909216919091179055565b60048054604051630f1f16a560e11b81529182018390526060916000916001600160a01b031690631e3e2d4a90602401600060405180830381865afa158015610337573d6000803e3d6000fd5b505050506040513d6000823e601f3d908101601f1916820160405261035f91908101906110a8565b9050600061037a826040015183608001518460a00151610748565b905060006103988360c0015160ff1684608001518560a00151610711565b905060006103a588610824565b60026040516020016103b892919061125d565b604051602081830303815290604052905060006103d489610824565b84836103df8a610824565b6001876040516020016103f7969594939291906112c1565b6040516020818303038152906040529050610411816108b6565b6040516020016104219190611444565b604051602081830303815290604052955050505050505b9392505050565b6104476107f7565b600480546001600160a01b0319166001600160a01b0392909216919091179055565b6060600061047784516108dc565b905060006104878261bb806114b5565b9050600061049f61049a610514846114b5565b610824565b856040516020016104b19291906114c9565b604051602081830303815290604052905060005b86518110156106175760006104da85836114b5565b905060006104e886846115c8565b905060006104f76002876114b5565b61050187846115dc565b61050b91906115f3565b9050600061051a6002886114b5565b61052488866115dc565b61052e91906115f3565b9050600061054161049a6103e8856114b5565b61055c60646105526103e8876115c8565b61049a91906114b5565b60405160200161056d929190611606565b60408051601f198184030181529190529050600061059061049a6103e8856114b5565b6105a160646105526103e8876115c8565b6040516020016105b2929190611606565b60405160208183030381529060405290508782828f8a815181106105d8576105d8611642565b60200260200101516040516020016105f39493929190611658565b604051602081830303815290604052975050505050505080806001019150506104c5565b50925050505b92915050565b6002805461023f90610f8f565b6106386107f7565b6106426000610935565b565b6040805180820190915260018152605b60f81b602082015260609060005b83518110156106e8578184828151811061067e5761067e611642565b60200260200101516040516020016106979291906116fb565b6040516020818303038152906040529150600184516106b69190611740565b8110156106e057816040516020016106ce9190611753565b60405160208183030381529060405291505b600101610662565b50806040516020016106fa9190611779565b60408051601f198184030181529190529392505050565b606061071c84610824565b83836040516020016107309392919061179e565b60405160208183030381529060405290509392505050565b606060006107568584610469565b90506000848260405160200161076d9291906118ae565b60405160208183030381529060405290506000610789826108b6565b60405160200161079991906119b5565b60408051808303601f19018152919052979650505050505050565b6107bc6107f7565b6001600160a01b0381166107eb57604051631e4fbdf760e01b8152600060048201526024015b60405180910390fd5b6107f481610935565b50565b6000546001600160a01b031633146106425760405163118cdaa760e01b81523360048201526024016107e2565b6060600061083183610985565b60010190506000816001600160401b0381111561085057610850610c9d565b6040519080825280601f01601f19166020018201604052801561087a576020820181803683370190505b5090508181016020015b600019016f181899199a1a9b1b9c1cb0b131b232b360811b600a86061a8153600a850494508461088457509392505050565b606061061d826040518060600160405280604081526020016119fb604091396001610a5d565b60008060026108ec8460016115f3565b6108f691906114b5565b90508291505b8181101561092f5790508060028161091481866114b5565b61091e91906115f3565b61092891906114b5565b90506108fc565b50919050565b600080546001600160a01b038381166001600160a01b0319831681178455604051919092169283917f8be0079c531659141344cd1fd0a4f28419497f9722a3daafe3b4186f6b6457e09190a35050565b60008072184f03e93ff9f4daa797ed6e38ed64bf6a1f0160401b83106109c45772184f03e93ff9f4daa797ed6e38ed64bf6a1f0160401b830492506040015b6d04ee2d6d415b85acef810000000083106109f0576d04ee2d6d415b85acef8100000000830492506020015b662386f26fc100008310610a0e57662386f26fc10000830492506010015b6305f5e1008310610a26576305f5e100830492506008015b6127108310610a3a57612710830492506004015b60648310610a4c576064830492506002015b600a831061061d5760010192915050565b60608351600003610a7d5750604080516020810190915260008152610438565b600082610aae57600385516004610a9491906115dc565b610a9f9060026115f3565b610aa991906114b5565b610ad3565b600385516002610abe91906115f3565b610ac891906114b5565b610ad39060046115dc565b90506000816001600160401b03811115610aef57610aef610c9d565b6040519080825280601f01601f191660200182016040528015610b19576020820181803683370190505b50905060018501602082018788518901602081018051600082525b82841015610b8f576003840193508351603f8160121c168701518653600186019550603f81600c1c168701518653600186019550603f8160061c168701518653600186019550603f8116870151865350600185019450610b34565b905250508515610bd057600388510660018114610bb35760028114610bc657610bce565b603d6001830353603d6002830353610bce565b603d60018303535b505b50909695505050505050565b60005b83811015610bf7578181015183820152602001610bdf565b50506000910152565b6020815260008251806020840152610c1f816040850160208701610bdc565b601f01601f19169190910160400192915050565b6001600160a01b03811681146107f457600080fd5b600060208284031215610c5a57600080fd5b813561043881610c33565b600080600060608486031215610c7a57600080fd5b833592506020840135610c8c81610c33565b929592945050506040919091013590565b634e487b7160e01b600052604160045260246000fd5b60405161010081016001600160401b0381118282101715610cd657610cd6610c9d565b60405290565b604051601f8201601f191681016001600160401b0381118282101715610d0457610d04610c9d565b604052919050565b60006001600160401b03821115610d2557610d25610c9d565b5060051b60200190565b60006001600160401b03821115610d4857610d48610c9d565b50601f01601f191660200190565b600082601f830112610d6757600080fd5b8135610d7a610d7582610d2f565b610cdc565b818152846020838601011115610d8f57600080fd5b816020850160208301376000918101602001919091529392505050565b600082601f830112610dbd57600080fd5b81356020610dcd610d7583610d0c565b82815260059290921b84018101918181019086841115610dec57600080fd5b8286015b84811015610e2b5780356001600160401b03811115610e0f5760008081fd5b610e1d8986838b0101610d56565b845250918301918301610df0565b509695505050505050565b60008060408385031215610e4957600080fd5b82356001600160401b0380821115610e6057600080fd5b610e6c86838701610dac565b93506020850135915080821115610e8257600080fd5b50610e8f85828601610d56565b9150509250929050565b600060208284031215610eab57600080fd5b81356001600160401b03811115610ec157600080fd5b610ecd84828501610dac565b949350505050565b600080600060608486031215610eea57600080fd5b8335925060208401356001600160401b0380821115610f0857600080fd5b610f1487838801610d56565b93506040860135915080821115610f2a57600080fd5b50610f3786828701610d56565b9150509250925092565b600080600060608486031215610f5657600080fd5b83356001600160401b0380821115610f6d57600080fd5b610f7987838801610dac565b94506020860135915080821115610f0857600080fd5b600181811c90821680610fa357607f821691505b60208210810361092f57634e487b7160e01b600052602260045260246000fd5b600082601f830112610fd457600080fd5b8151610fe2610d7582610d2f565b818152846020838601011115610ff757600080fd5b610ecd826020830160208701610bdc565b600082601f83011261101957600080fd5b81516020611029610d7583610d0c565b82815260059290921b8401810191818101908684111561104857600080fd5b8286015b84811015610e2b5780516001600160401b0381111561106b5760008081fd5b6110798986838b0101610fc3565b84525091830191830161104c565b805161109281610c33565b919050565b805160ff8116811461109257600080fd5b6000602082840312156110ba57600080fd5b81516001600160401b03808211156110d157600080fd5b9083019061010082860312156110e657600080fd5b6110ee610cb3565b825181526020830151602082015260408301518281111561110e57600080fd5b61111a87828601611008565b60408301525061112c60608401611087565b606082015260808301518281111561114357600080fd5b61114f87828601610fc3565b60808301525060a08301518281111561116757600080fd5b61117387828601610fc3565b60a08301525061118560c08401611097565b60c082015261119660e08401611087565b60e082015295945050505050565b600081516111b6818560208601610bdc565b9290920192915050565b8054600090600181811c90808316806111da57607f831692505b602080841082036111fb57634e487b7160e01b600052602260045260246000fd5b81801561120f576001811461122457611251565b60ff1986168952841515850289019650611251565b60008881526020902060005b868110156112495781548b820152908501908301611230565b505084890196505b50505050505092915050565b7f68747470733a2f2f646567656e65726174697665732e6172742f69642f00000081526000835161129581601d850160208801610bdc565b683f6e6574776f726b3d60b81b601d918401918201526112b860268201856111c0565b95945050505050565b717b226e616d65223a224d4f4f44415254202360701b815286516000906112ef816012850160208c01610bdc565b7f222c226465736372697074696f6e223a22222c2022696d616765223a20220000601291840191820152875161132c816030840160208c01610bdc565b7211161132bc3a32b93730b62fbab936111d101160691b603092909101918201528651611360816043840160208b01610bdc565b7f222c2261747472696275746573223a205b7b2274726169745f74797065223a2060439290910191820152741126b7b7b21024a2111610113b30b63ab2911d101160591b606382015285516113bc816078840160208a01610bdc565b61143661142861142261141361140d6078868801017f227d2c7b2274726169745f74797065223a20225468656d65204e616d65222c20815269113b30b63ab2911d101160b11b6020820152602a0190565b8a6111c0565b62089f4b60ea1b815260030190565b876111a4565b615d7d60f01b815260020190565b9a9950505050505050505050565b7f646174613a6170706c69636174696f6e2f6a736f6e3b6261736536342c00000081526000825161147c81601d850160208701610bdc565b91909101601d0192915050565b634e487b7160e01b600052601260045260246000fd5b634e487b7160e01b600052601160045260246000fd5b6000826114c4576114c4611489565b500490565b7f3c67207472616e73666f726d3d227472616e736c61746528322e352c20322e3581527f29207363616c6528302e39292220646f6d696e616e742d626173656c696e653d60208201527f2263656e7472616c2220746578742d616e63686f723d226d6964646c6522206660408201527f6f6e742d66616d696c793d22417269616c2c73616e732d73657269662220666f606082015268373a16b9b4bd329e9160b91b608082015260008351611585816089850160208801610bdc565b6711103334b6361e9160c11b60899184019182015283516115ad816091840160208801610bdc565b61111f60f11b60919290910191820152609301949350505050565b6000826115d7576115d7611489565b500690565b808202811582820484141761061d5761061d61149f565b8082018082111561061d5761061d61149f565b60008351611618818460208801610bdc565b601760f91b9083019081528351611636816001840160208801610bdc565b01600101949350505050565b634e487b7160e01b600052603260045260246000fd5b6000855161166a818460208a01610bdc565b681e3a32bc3a103c1e9160b91b9083019081528551611690816009840160208a01610bdc565b6411103c9e9160d91b6009929091019182015284516116b681600e840160208901610bdc565b61111f60f11b600e929091019182015283516116d9816010840160208801610bdc565b661e17ba32bc3a1f60c91b601092909101918201526017019695505050505050565b6000835161170d818460208801610bdc565b8083019050602760f81b808252845161172d816001850160208901610bdc565b6001920191820152600201949350505050565b8181038181111561061d5761061d61149f565b60008251611765818460208701610bdc565b61016160f51b920191825250600201919050565b6000825161178b818460208701610bdc565b605d60f81b920191825250600101919050565b7f7b2274726169745f74797065223a2022457870616e73696f6e204c6576656c2281526b1610113b30b63ab2911d101160a11b6020820152600084516117eb81602c850160208901610bdc565b7f227d2c7b2274726169745f74797065223a20224261636b67726f756e6420436f602c918401918201526f3637b9111610113b30b63ab2911d101160811b604c820152845161184181605c840160208901610bdc565b7f227d2c7b2274726169745f74797065223a2022466f6e7420436f6c6f72222c20605c929091019182015269113b30b63ab2911d101160b11b607c8201528351611892816086840160208801610bdc565b61227d60f01b6086929091019182015260880195945050505050565b7f3c73766720786d6c6e733d22687474703a2f2f7777772e77332e6f72672f323081527f30302f737667222077696474683d2238303022206865696768743d223830302260208201527f2066696c6c3d226e6f6e65222076696577426f783d22302030203438203438226040820152601f60f91b60608201527f3c726563742077696474683d22343822206865696768743d223438222066696c606182015262361e9160e91b60818201526000835161196e816084850160208801610bdc565b631110179f60e11b6084918401918201528351611992816088840160208801610bdc565b691e17b39f1e17b9bb339f60b11b60889290910191820152609201949350505050565b7f646174613a696d6167652f7376672b786d6c3b6261736536342c0000000000008152600082516119ed81601a850160208701610bdc565b91909101601a019291505056fe4142434445464748494a4b4c4d4e4f505152535455565758595a6162636465666768696a6b6c6d6e6f707172737475767778797a303132333435363738392b2fa26469706673582212207c65f0ba9e3e275aaaecc6593b518f5ed5bcce8e4966b4bf703cb99398cb3f7964736f6c63430008160033",
  "devdoc": {
    "errors": {
      "OwnableInvalidOwner(address)": [
        {
          "details": "The owner is not a valid owner account. (eg. `address(0)`)"
        }
      ],
      "OwnableUnauthorizedAccount(address)": [
        {
          "details": "The caller account is not authorized to perform an operation."
        }
      ]
    },
    "kind": "dev",
    "methods": {
      "owner()": {
        "details": "Returns the address of the current owner."
      },
      "renounceOwnership()": {
        "details": "Leaves the contract without owner. It will not be possible to call `onlyOwner` functions. Can only be called by the current owner. NOTE: Renouncing ownership will leave the contract without an owner, thereby disabling any functionality that is only available to the owner."
      },
      "transferOwnership(address)": {
        "details": "Transfers ownership of the contract to a new account (`newOwner`). Can only be called by the current owner."
      }
    },
    "version": 1
  },
  "userdoc": {
    "kind": "user",
    "methods": {},
    "version": 1
  },
  "storageLayout": {
    "storage": [
      {
        "astId": 8,
        "contract": "contracts/core/VisualEngine.sol:VisualEngine",
        "label": "_owner",
        "offset": 0,
        "slot": "0",
        "type": "t_address"
      },
      {
        "astId": 4390,
        "contract": "contracts/core/VisualEngine.sol:VisualEngine",
        "label": "theme",
        "offset": 0,
        "slot": "1",
        "type": "t_string_storage"
      },
      {
        "astId": 4392,
        "contract": "contracts/core/VisualEngine.sol:VisualEngine",
        "label": "network",
        "offset": 0,
        "slot": "2",
        "type": "t_string_storage"
      },
      {
        "astId": 4395,
        "contract": "contracts/core/VisualEngine.sol:VisualEngine",
        "label": "FUNGIBLEMOOD",
        "offset": 0,
        "slot": "3",
        "type": "t_contract(IERC20)225"
      },
      {
        "astId": 4398,
        "contract": "contracts/core/VisualEngine.sol:VisualEngine",
        "label": "MOODBANK",
        "offset": 0,
        "slot": "4",
        "type": "t_contract(IMoodBank)5050"
      }
    ],
    "types": {
      "t_address": {
        "encoding": "inplace",
        "label": "address",
        "numberOfBytes": "20"
      },
      "t_contract(IERC20)225": {
        "encoding": "inplace",
        "label": "contract IERC20",
        "numberOfBytes": "20"
      },
      "t_contract(IMoodBank)5050": {
        "encoding": "inplace",
        "label": "contract IMoodBank",
        "numberOfBytes": "20"
      },
      "t_string_storage": {
        "encoding": "bytes",
        "label": "string",
        "numberOfBytes": "32"
      }
    }
  }
}